{
  "contractName": "AbstractCollection",
  "abi": [
    {
      "inputs": [
        {
          "internalType": "string",
          "name": "uri_",
          "type": "string"
        },
        {
          "internalType": "uint256",
          "name": "freeAmount_",
          "type": "uint256"
        },
        {
          "internalType": "uint256",
          "name": "fancyAmount_",
          "type": "uint256"
        },
        {
          "internalType": "uint256",
          "name": "diamondAmount_",
          "type": "uint256"
        },
        {
          "internalType": "uint256",
          "name": "exclusiveAmount",
          "type": "uint256"
        }
      ],
      "stateMutability": "nonpayable",
      "type": "constructor"
    },
    {
      "anonymous": false,
      "inputs": [
        {
          "indexed": false,
          "internalType": "bytes4",
          "name": "hola",
          "type": "bytes4"
        }
      ],
      "name": "AfterTokenReceived",
      "type": "event"
    },
    {
      "anonymous": false,
      "inputs": [
        {
          "indexed": true,
          "internalType": "address",
          "name": "account",
          "type": "address"
        },
        {
          "indexed": true,
          "internalType": "address",
          "name": "operator",
          "type": "address"
        },
        {
          "indexed": false,
          "internalType": "bool",
          "name": "approved",
          "type": "bool"
        }
      ],
      "name": "ApprovalForAll",
      "type": "event"
    },
    {
      "anonymous": false,
      "inputs": [
        {
          "indexed": true,
          "internalType": "address",
          "name": "previousOwner",
          "type": "address"
        },
        {
          "indexed": true,
          "internalType": "address",
          "name": "newOwner",
          "type": "address"
        }
      ],
      "name": "OwnershipTransferred",
      "type": "event"
    },
    {
      "anonymous": false,
      "inputs": [
        {
          "indexed": true,
          "internalType": "address",
          "name": "operator",
          "type": "address"
        },
        {
          "indexed": true,
          "internalType": "address",
          "name": "from",
          "type": "address"
        },
        {
          "indexed": true,
          "internalType": "address",
          "name": "to",
          "type": "address"
        },
        {
          "indexed": false,
          "internalType": "uint256[]",
          "name": "ids",
          "type": "uint256[]"
        },
        {
          "indexed": false,
          "internalType": "uint256[]",
          "name": "values",
          "type": "uint256[]"
        }
      ],
      "name": "TransferBatch",
      "type": "event"
    },
    {
      "anonymous": false,
      "inputs": [
        {
          "indexed": true,
          "internalType": "address",
          "name": "operator",
          "type": "address"
        },
        {
          "indexed": true,
          "internalType": "address",
          "name": "from",
          "type": "address"
        },
        {
          "indexed": true,
          "internalType": "address",
          "name": "to",
          "type": "address"
        },
        {
          "indexed": false,
          "internalType": "uint256",
          "name": "id",
          "type": "uint256"
        },
        {
          "indexed": false,
          "internalType": "uint256",
          "name": "value",
          "type": "uint256"
        }
      ],
      "name": "TransferSingle",
      "type": "event"
    },
    {
      "anonymous": false,
      "inputs": [
        {
          "indexed": false,
          "internalType": "string",
          "name": "value",
          "type": "string"
        },
        {
          "indexed": true,
          "internalType": "uint256",
          "name": "id",
          "type": "uint256"
        }
      ],
      "name": "URI",
      "type": "event"
    },
    {
      "inputs": [],
      "name": "DIAMOND_CARD",
      "outputs": [
        {
          "internalType": "uint256",
          "name": "",
          "type": "uint256"
        }
      ],
      "stateMutability": "view",
      "type": "function",
      "constant": true
    },
    {
      "inputs": [],
      "name": "DIAMOND_FEE",
      "outputs": [
        {
          "internalType": "uint256",
          "name": "",
          "type": "uint256"
        }
      ],
      "stateMutability": "view",
      "type": "function",
      "constant": true
    },
    {
      "inputs": [],
      "name": "EXCLUSIVE_CARD",
      "outputs": [
        {
          "internalType": "uint256",
          "name": "",
          "type": "uint256"
        }
      ],
      "stateMutability": "view",
      "type": "function",
      "constant": true
    },
    {
      "inputs": [],
      "name": "FANCY_CARD",
      "outputs": [
        {
          "internalType": "uint256",
          "name": "",
          "type": "uint256"
        }
      ],
      "stateMutability": "view",
      "type": "function",
      "constant": true
    },
    {
      "inputs": [],
      "name": "FREE_CARD",
      "outputs": [
        {
          "internalType": "uint256",
          "name": "",
          "type": "uint256"
        }
      ],
      "stateMutability": "view",
      "type": "function",
      "constant": true
    },
    {
      "inputs": [],
      "name": "GOLD_FEE",
      "outputs": [
        {
          "internalType": "uint256",
          "name": "",
          "type": "uint256"
        }
      ],
      "stateMutability": "view",
      "type": "function",
      "constant": true
    },
    {
      "inputs": [],
      "name": "owner",
      "outputs": [
        {
          "internalType": "address",
          "name": "",
          "type": "address"
        }
      ],
      "stateMutability": "view",
      "type": "function",
      "constant": true
    },
    {
      "inputs": [],
      "name": "renounceOwnership",
      "outputs": [],
      "stateMutability": "nonpayable",
      "type": "function"
    },
    {
      "inputs": [
        {
          "internalType": "address",
          "name": "newOwner",
          "type": "address"
        }
      ],
      "name": "transferOwnership",
      "outputs": [],
      "stateMutability": "nonpayable",
      "type": "function"
    },
    {
      "inputs": [],
      "name": "getFreeCollectionCard",
      "outputs": [],
      "stateMutability": "nonpayable",
      "type": "function"
    },
    {
      "inputs": [],
      "name": "getRareCollectionCard",
      "outputs": [],
      "stateMutability": "payable",
      "type": "function",
      "payable": true
    },
    {
      "inputs": [
        {
          "internalType": "uint256",
          "name": "_amount",
          "type": "uint256"
        }
      ],
      "name": "ownerWithdraw",
      "outputs": [
        {
          "internalType": "bool",
          "name": "",
          "type": "bool"
        }
      ],
      "stateMutability": "nonpayable",
      "type": "function"
    },
    {
      "inputs": [
        {
          "internalType": "bytes4",
          "name": "interfaceId",
          "type": "bytes4"
        }
      ],
      "name": "supportsInterface",
      "outputs": [
        {
          "internalType": "bool",
          "name": "",
          "type": "bool"
        }
      ],
      "stateMutability": "view",
      "type": "function",
      "constant": true
    },
    {
      "inputs": [
        {
          "internalType": "uint256",
          "name": "",
          "type": "uint256"
        }
      ],
      "name": "uri",
      "outputs": [
        {
          "internalType": "string",
          "name": "",
          "type": "string"
        }
      ],
      "stateMutability": "view",
      "type": "function",
      "constant": true
    },
    {
      "inputs": [
        {
          "internalType": "address",
          "name": "account",
          "type": "address"
        },
        {
          "internalType": "uint256",
          "name": "id",
          "type": "uint256"
        }
      ],
      "name": "balanceOf",
      "outputs": [
        {
          "internalType": "uint256",
          "name": "",
          "type": "uint256"
        }
      ],
      "stateMutability": "view",
      "type": "function",
      "constant": true
    },
    {
      "inputs": [
        {
          "internalType": "address[]",
          "name": "accounts",
          "type": "address[]"
        },
        {
          "internalType": "uint256[]",
          "name": "ids",
          "type": "uint256[]"
        }
      ],
      "name": "balanceOfBatch",
      "outputs": [
        {
          "internalType": "uint256[]",
          "name": "",
          "type": "uint256[]"
        }
      ],
      "stateMutability": "view",
      "type": "function",
      "constant": true
    },
    {
      "inputs": [
        {
          "internalType": "address",
          "name": "operator",
          "type": "address"
        },
        {
          "internalType": "bool",
          "name": "approved",
          "type": "bool"
        }
      ],
      "name": "setApprovalForAll",
      "outputs": [],
      "stateMutability": "nonpayable",
      "type": "function"
    },
    {
      "inputs": [
        {
          "internalType": "address",
          "name": "account",
          "type": "address"
        },
        {
          "internalType": "address",
          "name": "operator",
          "type": "address"
        }
      ],
      "name": "isApprovedForAll",
      "outputs": [
        {
          "internalType": "bool",
          "name": "",
          "type": "bool"
        }
      ],
      "stateMutability": "view",
      "type": "function",
      "constant": true
    },
    {
      "inputs": [
        {
          "internalType": "address",
          "name": "from",
          "type": "address"
        },
        {
          "internalType": "address",
          "name": "to",
          "type": "address"
        },
        {
          "internalType": "uint256",
          "name": "id",
          "type": "uint256"
        },
        {
          "internalType": "uint256",
          "name": "amount",
          "type": "uint256"
        },
        {
          "internalType": "bytes",
          "name": "data",
          "type": "bytes"
        }
      ],
      "name": "safeTransferFrom",
      "outputs": [],
      "stateMutability": "nonpayable",
      "type": "function"
    },
    {
      "inputs": [
        {
          "internalType": "address",
          "name": "from",
          "type": "address"
        },
        {
          "internalType": "address",
          "name": "to",
          "type": "address"
        },
        {
          "internalType": "uint256[]",
          "name": "ids",
          "type": "uint256[]"
        },
        {
          "internalType": "uint256[]",
          "name": "amounts",
          "type": "uint256[]"
        },
        {
          "internalType": "bytes",
          "name": "data",
          "type": "bytes"
        }
      ],
      "name": "safeBatchTransferFrom",
      "outputs": [],
      "stateMutability": "nonpayable",
      "type": "function"
    }
  ],
  "bytecode": "0x6080604052600060045560006005553480156200001b57600080fd5b506040516200468b3803806200468b83398181016040528101906200004191906200092e565b60006200005c62000233640100000000026401000000009004565b9050806000806101000a81548173ffffffffffffffffffffffffffffffffffffffff021916908373ffffffffffffffffffffffffffffffffffffffff1602179055508073ffffffffffffffffffffffffffffffffffffffff16600073ffffffffffffffffffffffffffffffffffffffff167f8be0079c531659141344cd1fd0a4f28419497f9722a3daafe3b4186f6b6457e060405160405180910390a3506200013f6200011762000233640100000000026401000000009004565b600086604051806020016040528060008152506200023b640100000000026401000000009004565b620001846200015c62000233640100000000026401000000009004565b600185604051806020016040528060008152506200023b640100000000026401000000009004565b620001c9620001a162000233640100000000026401000000009004565b600284604051806020016040528060008152506200023b640100000000026401000000009004565b6200020e620001e662000233640100000000026401000000009004565b600383604051806020016040528060008152506200023b640100000000026401000000009004565b62000228856200042e640100000000026401000000009004565b5050505050620010da565b600033905090565b600073ffffffffffffffffffffffffffffffffffffffff168473ffffffffffffffffffffffffffffffffffffffff161415620002ae576040517f08c379a0000000000000000000000000000000000000000000000000000000008152600401620002a59062000bdc565b60405180910390fd5b6000620002c962000233640100000000026401000000009004565b90506200031d81600087620002ed886200044a640100000000026401000000009004565b62000307886200044a640100000000026401000000009004565b8762000513640100000000026401000000009004565b826001600086815260200190815260200160002060008773ffffffffffffffffffffffffffffffffffffffff1673ffffffffffffffffffffffffffffffffffffffff16815260200190815260200160002060008282546200037f919062000cc2565b925050819055508473ffffffffffffffffffffffffffffffffffffffff16600073ffffffffffffffffffffffffffffffffffffffff168273ffffffffffffffffffffffffffffffffffffffff167fc3d58168c5ae7397731d063d5bbf3d657854427343f4c083240f7aacaa2d0f628787604051620003ff92919062000bfe565b60405180910390a462000427816000878787876200051b640100000000026401000000009004565b5050505050565b806003908051906020019062000446929190620007b2565b5050565b60606000600167ffffffffffffffff81111562000490577f4e487b7100000000000000000000000000000000000000000000000000000000600052604160045260246000fd5b604051908082528060200260200182016040528015620004bf5781602001602082028036833780820191505090505b5090508281600081518110620004fe577f4e487b7100000000000000000000000000000000000000000000000000000000600052603260045260246000fd5b60200260200101818152505080915050919050565b505050505050565b620005508473ffffffffffffffffffffffffffffffffffffffff166200079f64010000000002620016a2176401000000009004565b1562000797578373ffffffffffffffffffffffffffffffffffffffff1663f23a6e6187878686866040518663ffffffff167c0100000000000000000000000000000000000000000000000000000000028152600401620005b595949392919062000af3565b602060405180830381600087803b158015620005d057600080fd5b505af19250505080156200060457506040513d601f19601f8201168201806040525081019062000601919062000902565b60015b620006b6576200061362000eb8565b806308c379a014156200067757506200062b62001004565b8062000638575062000679565b806040517f08c379a00000000000000000000000000000000000000000000000000000000081526004016200066e919062000b74565b60405180910390fd5b505b6040517f08c379a0000000000000000000000000000000000000000000000000000000008152600401620006ad9062000b98565b60405180910390fd5b63f23a6e617c0100000000000000000000000000000000000000000000000000000000027bffffffffffffffffffffffffffffffffffffffffffffffffffffffff1916817bffffffffffffffffffffffffffffffffffffffffffffffffffffffff1916146200075c576040517f08c379a0000000000000000000000000000000000000000000000000000000008152600401620007539062000bba565b60405180910390fd5b7f95e6c00594d1fcf468cd418fcbc41429e18f10f5a0441ef3b7440a57e3ee0cba816040516200078d919062000b57565b60405180910390a1505b505050505050565b600080823b905060008111915050919050565b828054620007c09062000dbf565b90600052602060002090601f016020900481019282620007e4576000855562000830565b82601f10620007ff57805160ff191683800117855562000830565b8280016001018555821562000830579182015b828111156200082f57825182559160200191906001019062000812565b5b5090506200083f919062000843565b5090565b5b808211156200085e57600081600090555060010162000844565b5090565b600062000879620008738462000c54565b62000c2b565b9050828152602081018484840111156200089257600080fd5b6200089f84828562000d89565b509392505050565b600081519050620008b881620010a6565b92915050565b600082601f830112620008d057600080fd5b8151620008e284826020860162000862565b91505092915050565b600081519050620008fc81620010c0565b92915050565b6000602082840312156200091557600080fd5b60006200092584828501620008a7565b91505092915050565b600080600080600060a086880312156200094757600080fd5b600086015167ffffffffffffffff8111156200096257600080fd5b6200097088828901620008be565b95505060206200098388828901620008eb565b94505060406200099688828901620008eb565b9350506060620009a988828901620008eb565b9250506080620009bc88828901620008eb565b9150509295509295909350565b620009d48162000d1f565b82525050565b620009e58162000d33565b82525050565b6000620009f88262000c8a565b62000a04818562000ca0565b935062000a1681856020860162000d89565b62000a218162000edd565b840191505092915050565b600062000a398262000c95565b62000a45818562000cb1565b935062000a5781856020860162000d89565b62000a628162000edd565b840191505092915050565b600062000a7c60348362000cb1565b915062000a898262000f17565b604082019050919050565b600062000aa360288362000cb1565b915062000ab08262000f66565b604082019050919050565b600062000aca60218362000cb1565b915062000ad78262000fb5565b604082019050919050565b62000aed8162000d7f565b82525050565b600060a08201905062000b0a6000830188620009c9565b62000b196020830187620009c9565b62000b28604083018662000ae2565b62000b37606083018562000ae2565b818103608083015262000b4b8184620009eb565b90509695505050505050565b600060208201905062000b6e6000830184620009da565b92915050565b6000602082019050818103600083015262000b90818462000a2c565b905092915050565b6000602082019050818103600083015262000bb38162000a6d565b9050919050565b6000602082019050818103600083015262000bd58162000a94565b9050919050565b6000602082019050818103600083015262000bf78162000abb565b9050919050565b600060408201905062000c15600083018562000ae2565b62000c24602083018462000ae2565b9392505050565b600062000c3762000c4a565b905062000c45828262000df5565b919050565b6000604051905090565b600067ffffffffffffffff82111562000c725762000c7162000e89565b5b62000c7d8262000edd565b9050602081019050919050565b600081519050919050565b600081519050919050565b600082825260208201905092915050565b600082825260208201905092915050565b600062000ccf8262000d7f565b915062000cdc8362000d7f565b9250827fffffffffffffffffffffffffffffffffffffffffffffffffffffffffffffffff0382111562000d145762000d1362000e2b565b5b828201905092915050565b600062000d2c8262000d5f565b9050919050565b60007fffffffff0000000000000000000000000000000000000000000000000000000082169050919050565b600073ffffffffffffffffffffffffffffffffffffffff82169050919050565b6000819050919050565b60005b8381101562000da957808201518184015260208101905062000d8c565b8381111562000db9576000848401525b50505050565b6000600282049050600182168062000dd857607f821691505b6020821081141562000def5762000dee62000e5a565b5b50919050565b62000e008262000edd565b810181811067ffffffffffffffff8211171562000e225762000e2162000e89565b5b80604052505050565b7f4e487b7100000000000000000000000000000000000000000000000000000000600052601160045260246000fd5b7f4e487b7100000000000000000000000000000000000000000000000000000000600052602260045260246000fd5b7f4e487b7100000000000000000000000000000000000000000000000000000000600052604160045260246000fd5b600060033d111562000eda5760046000803e62000ed760005162000eee565b90505b90565b6000601f19601f8301169050919050565b60007c010000000000000000000000000000000000000000000000000000000082049050919050565b7f455243313135353a207472616e7366657220746f206e6f6e204552433131353560008201527f526563656976657220696d706c656d656e746572000000000000000000000000602082015250565b7f455243313135353a204552433131353552656365697665722072656a6563746560008201527f6420746f6b656e73000000000000000000000000000000000000000000000000602082015250565b7f455243313135353a206d696e7420746f20746865207a65726f2061646472657360008201527f7300000000000000000000000000000000000000000000000000000000000000602082015250565b600060443d10156200101657620010a3565b6200102062000c4a565b60043d036004823e80513d602482011167ffffffffffffffff821117156200104a575050620010a3565b808201805167ffffffffffffffff8111156200106a5750505050620010a3565b80602083010160043d03850181111562001089575050505050620010a3565b6200109a8260200185018662000df5565b82955050505050505b90565b620010b18162000d33565b8114620010bd57600080fd5b50565b620010cb8162000d7f565b8114620010d757600080fd5b50565b6135a180620010ea6000396000f3fe60806040526004361061013b576000357c0100000000000000000000000000000000000000000000000000000000900480638c67b53f116100bd578063e985e9c511610081578063e985e9c5146103f3578063ea57d04414610430578063f242432a1461043a578063f2fde38b14610463578063fd9d09aa1461048c5761013b565b80638c67b53f146103325780638da5cb5b146103495780639c474baf14610374578063a22cb4651461039f578063e847453e146103c85761013b565b80634e1273f4116101045780634e1273f41461025d5780634e33456b1461029a578063715018a6146102c55780638348af22146102dc5780638a340ae9146103075761013b565b8062fdd58e1461014057806301ffc9a71461017d5780630e89341c146101ba5780632eb2c2d6146101f757806333f707d114610220575b600080fd5b34801561014c57600080fd5b5061016760048036038101906101629190612334565b6104b7565b6040516101749190612b2d565b60405180910390f35b34801561018957600080fd5b506101a4600480360381019061019f91906123dc565b610581565b6040516101b19190612915565b60405180910390f35b3480156101c657600080fd5b506101e160048036038101906101dc919061242e565b610663565b6040516101ee919061294b565b60405180910390f35b34801561020357600080fd5b5061021e600480360381019061021991906121aa565b6106f7565b005b34801561022c57600080fd5b506102476004803603810190610242919061242e565b610af0565b6040516102549190612915565b60405180910390f35b34801561026957600080fd5b50610284600480360381019061027f9190612370565b610bfd565b60405161029191906128bc565b60405180910390f35b3480156102a657600080fd5b506102af610dae565b6040516102bc9190612b2d565b60405180910390f35b3480156102d157600080fd5b506102da610db3565b005b3480156102e857600080fd5b506102f1610eed565b6040516102fe9190612b2d565b60405180910390f35b34801561031357600080fd5b5061031c610ef2565b6040516103299190612b2d565b60405180910390f35b34801561033e57600080fd5b50610347610ef7565b005b34801561035557600080fd5b5061035e610f03565b60405161036b91906127df565b60405180910390f35b34801561038057600080fd5b50610389610f2c565b6040516103969190612b2d565b60405180910390f35b3480156103ab57600080fd5b506103c660048036038101906103c191906122f8565b610f38565b005b3480156103d457600080fd5b506103dd6110b9565b6040516103ea9190612b2d565b60405180910390f35b3480156103ff57600080fd5b5061041a6004803603810190610415919061216e565b6110be565b6040516104279190612915565b60405180910390f35b610438611152565b005b34801561044657600080fd5b50610461600480360381019061045c9190612269565b6111d2565b005b34801561046f57600080fd5b5061048a60048036038101906104859190612145565b6114ed565b005b34801561049857600080fd5b506104a1611696565b6040516104ae9190612b2d565b60405180910390f35b60008073ffffffffffffffffffffffffffffffffffffffff168373ffffffffffffffffffffffffffffffffffffffff161415610528576040517f08c379a000000000000000000000000000000000000000000000000000000000815260040161051f906129ad565b60405180910390fd5b6001600083815260200190815260200160002060008473ffffffffffffffffffffffffffffffffffffffff1673ffffffffffffffffffffffffffffffffffffffff16815260200190815260200160002054905092915050565b60007fd9b67a26000000000000000000000000000000000000000000000000000000007bffffffffffffffffffffffffffffffffffffffffffffffffffffffff1916827bffffffffffffffffffffffffffffffffffffffffffffffffffffffff1916148061064c57507f0e89341c000000000000000000000000000000000000000000000000000000007bffffffffffffffffffffffffffffffffffffffffffffffffffffffff1916827bffffffffffffffffffffffffffffffffffffffffffffffffffffffff1916145b8061065c575061065b826116b5565b5b9050919050565b60606003805461067290612de0565b80601f016020809104026020016040519081016040528092919081815260200182805461069e90612de0565b80156106eb5780601f106106c0576101008083540402835291602001916106eb565b820191906000526020600020905b8154815290600101906020018083116106ce57829003601f168201915b50505050509050919050565b815183511461073b576040517f08c379a000000000000000000000000000000000000000000000000000000000815260040161073290612aed565b60405180910390fd5b600073ffffffffffffffffffffffffffffffffffffffff168473ffffffffffffffffffffffffffffffffffffffff1614156107ab576040517f08c379a00000000000000000000000000000000000000000000000000000000081526004016107a290612a2d565b60405180910390fd5b6107b361171f565b73ffffffffffffffffffffffffffffffffffffffff168573ffffffffffffffffffffffffffffffffffffffff1614806107f957506107f8856107f361171f565b6110be565b5b610838576040517f08c379a000000000000000000000000000000000000000000000000000000000815260040161082f90612a4d565b60405180910390fd5b600061084261171f565b9050610852818787878787611727565b60005b8451811015610a5b576000858281518110610899577f4e487b7100000000000000000000000000000000000000000000000000000000600052603260045260246000fd5b6020026020010151905060008583815181106108de577f4e487b7100000000000000000000000000000000000000000000000000000000600052603260045260246000fd5b6020026020010151905060006001600084815260200190815260200160002060008b73ffffffffffffffffffffffffffffffffffffffff1673ffffffffffffffffffffffffffffffffffffffff16815260200190815260200160002054905081811015610980576040517f08c379a000000000000000000000000000000000000000000000000000000000815260040161097790612a6d565b60405180910390fd5b818161098c9190612ce6565b6001600085815260200190815260200160002060008c73ffffffffffffffffffffffffffffffffffffffff1673ffffffffffffffffffffffffffffffffffffffff16815260200190815260200160002081905550816001600085815260200190815260200160002060008b73ffffffffffffffffffffffffffffffffffffffff1673ffffffffffffffffffffffffffffffffffffffff1681526020019081526020016000206000828254610a409190612c90565b9250508190555050505080610a5490612e43565b9050610855565b508473ffffffffffffffffffffffffffffffffffffffff168673ffffffffffffffffffffffffffffffffffffffff168273ffffffffffffffffffffffffffffffffffffffff167f4a39dc06d4c0dbc64b70af90fd698a233a518aa5d07e595d983b8c0526c8f7fb8787604051610ad29291906128de565b60405180910390a4610ae881878787878761172f565b505050505050565b6000610afa61171f565b73ffffffffffffffffffffffffffffffffffffffff16610b18610f03565b73ffffffffffffffffffffffffffffffffffffffff1614610b6e576040517f08c379a0000000000000000000000000000000000000000000000000000000008152600401610b6590612a8d565b60405180910390fd5b6000821115610bf3578160046000828254610b899190612ce6565b92505081905550610b98610f03565b73ffffffffffffffffffffffffffffffffffffffff166108fc839081150290604051600060405180830381858888f19350505050610bf2578160046000828254610be29190612c90565b9250508190555060009050610bf8565b5b600190505b919050565b60608151835114610c43576040517f08c379a0000000000000000000000000000000000000000000000000000000008152600401610c3a90612acd565b60405180910390fd5b6000835167ffffffffffffffff811115610c86577f4e487b7100000000000000000000000000000000000000000000000000000000600052604160045260246000fd5b604051908082528060200260200182016040528015610cb45781602001602082028036833780820191505090505b50905060005b8451811015610da357610d4d858281518110610cff577f4e487b7100000000000000000000000000000000000000000000000000000000600052603260045260246000fd5b6020026020010151858381518110610d40577f4e487b7100000000000000000000000000000000000000000000000000000000600052603260045260246000fd5b60200260200101516104b7565b828281518110610d86577f4e487b7100000000000000000000000000000000000000000000000000000000600052603260045260246000fd5b60200260200101818152505080610d9c90612e43565b9050610cba565b508091505092915050565b600281565b610dbb61171f565b73ffffffffffffffffffffffffffffffffffffffff16610dd9610f03565b73ffffffffffffffffffffffffffffffffffffffff1614610e2f576040517f08c379a0000000000000000000000000000000000000000000000000000000008152600401610e2690612a8d565b60405180910390fd5b600073ffffffffffffffffffffffffffffffffffffffff1660008054906101000a900473ffffffffffffffffffffffffffffffffffffffff1673ffffffffffffffffffffffffffffffffffffffff167f8be0079c531659141344cd1fd0a4f28419497f9722a3daafe3b4186f6b6457e060405160405180910390a360008060006101000a81548173ffffffffffffffffffffffffffffffffffffffff021916908373ffffffffffffffffffffffffffffffffffffffff160217905550565b600381565b600081565b610f01600061194e565b565b60008060009054906101000a900473ffffffffffffffffffffffffffffffffffffffff16905090565b67016345785d8a000081565b8173ffffffffffffffffffffffffffffffffffffffff16610f5761171f565b73ffffffffffffffffffffffffffffffffffffffff161415610fae576040517f08c379a0000000000000000000000000000000000000000000000000000000008152600401610fa590612aad565b60405180910390fd5b8060026000610fbb61171f565b73ffffffffffffffffffffffffffffffffffffffff1673ffffffffffffffffffffffffffffffffffffffff16815260200190815260200160002060008473ffffffffffffffffffffffffffffffffffffffff1673ffffffffffffffffffffffffffffffffffffffff16815260200190815260200160002060006101000a81548160ff0219169083151502179055508173ffffffffffffffffffffffffffffffffffffffff1661106861171f565b73ffffffffffffffffffffffffffffffffffffffff167f17307eab39ab6107e8899845ad3d59bd9653f200f220920489ca2b5937696c31836040516110ad9190612915565b60405180910390a35050565b600181565b6000600260008473ffffffffffffffffffffffffffffffffffffffff1673ffffffffffffffffffffffffffffffffffffffff16815260200190815260200160002060008373ffffffffffffffffffffffffffffffffffffffff1673ffffffffffffffffffffffffffffffffffffffff16815260200190815260200160002060009054906101000a900460ff16905092915050565b67016345785d8a000034148061116f57506706f05b59d3b2000034145b6111ae576040517f08c379a00000000000000000000000000000000000000000000000000000000081526004016111a590612a0d565b60405180910390fd5b34600460008282546111c09190612c90565b925050819055506111d03461194e565b565b600073ffffffffffffffffffffffffffffffffffffffff168473ffffffffffffffffffffffffffffffffffffffff161415611242576040517f08c379a000000000000000000000000000000000000000000000000000000000815260040161123990612a2d565b60405180910390fd5b61124a61171f565b73ffffffffffffffffffffffffffffffffffffffff168573ffffffffffffffffffffffffffffffffffffffff161480611290575061128f8561128a61171f565b6110be565b5b6112cf576040517f08c379a00000000000000000000000000000000000000000000000000000000081526004016112c6906129ed565b60405180910390fd5b60006112d961171f565b90506112f98187876112ea88611982565b6112f388611982565b87611727565b60006001600086815260200190815260200160002060008873ffffffffffffffffffffffffffffffffffffffff1673ffffffffffffffffffffffffffffffffffffffff16815260200190815260200160002054905083811015611391576040517f08c379a000000000000000000000000000000000000000000000000000000000815260040161138890612a6d565b60405180910390fd5b838161139d9190612ce6565b6001600087815260200190815260200160002060008973ffffffffffffffffffffffffffffffffffffffff1673ffffffffffffffffffffffffffffffffffffffff16815260200190815260200160002081905550836001600087815260200190815260200160002060008873ffffffffffffffffffffffffffffffffffffffff1673ffffffffffffffffffffffffffffffffffffffff16815260200190815260200160002060008282546114519190612c90565b925050819055508573ffffffffffffffffffffffffffffffffffffffff168773ffffffffffffffffffffffffffffffffffffffff168373ffffffffffffffffffffffffffffffffffffffff167fc3d58168c5ae7397731d063d5bbf3d657854427343f4c083240f7aacaa2d0f6288886040516114ce929190612b48565b60405180910390a46114e4828888888888611a48565b50505050505050565b6114f561171f565b73ffffffffffffffffffffffffffffffffffffffff16611513610f03565b73ffffffffffffffffffffffffffffffffffffffff1614611569576040517f08c379a000000000000000000000000000000000000000000000000000000000815260040161156090612a8d565b60405180910390fd5b600073ffffffffffffffffffffffffffffffffffffffff168173ffffffffffffffffffffffffffffffffffffffff1614156115d9576040517f08c379a00000000000000000000000000000000000000000000000000000000081526004016115d0906129cd565b60405180910390fd5b8073ffffffffffffffffffffffffffffffffffffffff1660008054906101000a900473ffffffffffffffffffffffffffffffffffffffff1673ffffffffffffffffffffffffffffffffffffffff167f8be0079c531659141344cd1fd0a4f28419497f9722a3daafe3b4186f6b6457e060405160405180910390a3806000806101000a81548173ffffffffffffffffffffffffffffffffffffffff021916908373ffffffffffffffffffffffffffffffffffffffff16021790555050565b6706f05b59d3b2000081565b600080823b905060008111915050919050565b60007f01ffc9a7000000000000000000000000000000000000000000000000000000007bffffffffffffffffffffffffffffffffffffffffffffffffffffffff1916827bffffffffffffffffffffffffffffffffffffffffffffffffffffffff1916149050919050565b600033905090565b505050505050565b61174e8473ffffffffffffffffffffffffffffffffffffffff166116a2565b15611946578373ffffffffffffffffffffffffffffffffffffffff1663bc197c8187878686866040518663ffffffff167c01000000000000000000000000000000000000000000000000000000000281526004016117b09594939291906127fa565b602060405180830381600087803b1580156117ca57600080fd5b505af19250505080156117fb57506040513d601f19601f820116820180604052508101906117f89190612405565b60015b6118a157611807612fd8565b806308c379a01415611864575061181c613479565b806118275750611866565b806040517f08c379a000000000000000000000000000000000000000000000000000000000815260040161185b919061294b565b60405180910390fd5b505b6040517f08c379a00000000000000000000000000000000000000000000000000000000081526004016118989061296d565b60405180910390fd5b63bc197c817c0100000000000000000000000000000000000000000000000000000000027bffffffffffffffffffffffffffffffffffffffffffffffffffffffff1916817bffffffffffffffffffffffffffffffffffffffffffffffffffffffff191614611944576040517f08c379a000000000000000000000000000000000000000000000000000000000815260040161193b9061298d565b60405180910390fd5b505b505050505050565b600061195982611c9e565b905061197e61196661171f565b82600160405180602001604052806000815250611d4d565b5050565b60606000600167ffffffffffffffff8111156119c7577f4e487b7100000000000000000000000000000000000000000000000000000000600052604160045260246000fd5b6040519080825280602002602001820160405280156119f55781602001602082028036833780820191505090505b5090508281600081518110611a33577f4e487b7100000000000000000000000000000000000000000000000000000000600052603260045260246000fd5b60200260200101818152505080915050919050565b611a678473ffffffffffffffffffffffffffffffffffffffff166116a2565b15611c96578373ffffffffffffffffffffffffffffffffffffffff1663f23a6e6187878686866040518663ffffffff167c0100000000000000000000000000000000000000000000000000000000028152600401611ac9959493929190612862565b602060405180830381600087803b158015611ae357600080fd5b505af1925050508015611b1457506040513d601f19601f82011682018060405250810190611b119190612405565b60015b611bba57611b20612fd8565b806308c379a01415611b7d5750611b35613479565b80611b405750611b7f565b806040517f08c379a0000000000000000000000000000000000000000000000000000000008152600401611b74919061294b565b60405180910390fd5b505b6040517f08c379a0000000000000000000000000000000000000000000000000000000008152600401611bb19061296d565b60405180910390fd5b63f23a6e617c0100000000000000000000000000000000000000000000000000000000027bffffffffffffffffffffffffffffffffffffffffffffffffffffffff1916817bffffffffffffffffffffffffffffffffffffffffffffffffffffffff191614611c5d576040517f08c379a0000000000000000000000000000000000000000000000000000000008152600401611c549061298d565b60405180910390fd5b7f95e6c00594d1fcf468cd418fcbc41429e18f10f5a0441ef3b7440a57e3ee0cba81604051611c8c9190612930565b60405180910390a1505b505050505050565b600080611cad620f4240611ee4565b905060006706f05b59d3b20000841415611cca5760029050611cf4565b67016345785d8a0000841415611ce35760099050611cf3565b6000841415611cf25761270f90505b5b5b60008183611d029190612eeb565b63ffffffff1690506000811415611d1f5760029350505050611d48565b600081118015611d2f5750600a81105b15611d405760019350505050611d48565b600093505050505b919050565b600073ffffffffffffffffffffffffffffffffffffffff168473ffffffffffffffffffffffffffffffffffffffff161415611dbd576040517f08c379a0000000000000000000000000000000000000000000000000000000008152600401611db490612b0d565b60405180910390fd5b6000611dc761171f565b9050611de881600087611dd988611982565b611de288611982565b87611727565b826001600086815260200190815260200160002060008773ffffffffffffffffffffffffffffffffffffffff1673ffffffffffffffffffffffffffffffffffffffff1681526020019081526020016000206000828254611e489190612c90565b925050819055508473ffffffffffffffffffffffffffffffffffffffff16600073ffffffffffffffffffffffffffffffffffffffff168273ffffffffffffffffffffffffffffffffffffffff167fc3d58168c5ae7397731d063d5bbf3d657854427343f4c083240f7aacaa2d0f628787604051611ec6929190612b48565b60405180910390a4611edd81600087878787611a48565b5050505050565b600060056000815480929190611ef990612e43565b91905055508142611f0861171f565b600554604051602001611f1d939291906127a2565b6040516020818303038152906040528051906020012060019004611f419190612eba565b9050919050565b6000611f5b611f5684612b96565b612b71565b90508083825260208201905082856020860282011115611f7a57600080fd5b60005b85811015611faa5781611f90888261205e565b845260208401935060208301925050600181019050611f7d565b5050509392505050565b6000611fc7611fc284612bc2565b612b71565b90508083825260208201905082856020860282011115611fe657600080fd5b60005b858110156120165781611ffc8882612130565b845260208401935060208301925050600181019050611fe9565b5050509392505050565b600061203361202e84612bee565b612b71565b90508281526020810184848401111561204b57600080fd5b612056848285612d9e565b509392505050565b60008135905061206d8161350f565b92915050565b600082601f83011261208457600080fd5b8135612094848260208601611f48565b91505092915050565b600082601f8301126120ae57600080fd5b81356120be848260208601611fb4565b91505092915050565b6000813590506120d681613526565b92915050565b6000813590506120eb8161353d565b92915050565b6000815190506121008161353d565b92915050565b600082601f83011261211757600080fd5b8135612127848260208601612020565b91505092915050565b60008135905061213f81613554565b92915050565b60006020828403121561215757600080fd5b60006121658482850161205e565b91505092915050565b6000806040838503121561218157600080fd5b600061218f8582860161205e565b92505060206121a08582860161205e565b9150509250929050565b600080600080600060a086880312156121c257600080fd5b60006121d08882890161205e565b95505060206121e18882890161205e565b945050604086013567ffffffffffffffff8111156121fe57600080fd5b61220a8882890161209d565b935050606086013567ffffffffffffffff81111561222757600080fd5b6122338882890161209d565b925050608086013567ffffffffffffffff81111561225057600080fd5b61225c88828901612106565b9150509295509295909350565b600080600080600060a0868803121561228157600080fd5b600061228f8882890161205e565b95505060206122a08882890161205e565b94505060406122b188828901612130565b93505060606122c288828901612130565b925050608086013567ffffffffffffffff8111156122df57600080fd5b6122eb88828901612106565b9150509295509295909350565b6000806040838503121561230b57600080fd5b60006123198582860161205e565b925050602061232a858286016120c7565b9150509250929050565b6000806040838503121561234757600080fd5b60006123558582860161205e565b925050602061236685828601612130565b9150509250929050565b6000806040838503121561238357600080fd5b600083013567ffffffffffffffff81111561239d57600080fd5b6123a985828601612073565b925050602083013567ffffffffffffffff8111156123c657600080fd5b6123d28582860161209d565b9150509250929050565b6000602082840312156123ee57600080fd5b60006123fc848285016120dc565b91505092915050565b60006020828403121561241757600080fd5b6000612425848285016120f1565b91505092915050565b60006020828403121561244057600080fd5b600061244e84828501612130565b91505092915050565b6000612463838361276d565b60208301905092915050565b61247881612d1a565b82525050565b61248f61248a82612d1a565b612e8c565b82525050565b60006124a082612c2f565b6124aa8185612c5d565b93506124b583612c1f565b8060005b838110156124e65781516124cd8882612457565b97506124d883612c50565b9250506001810190506124b9565b5085935050505092915050565b6124fc81612d2c565b82525050565b61250b81612d38565b82525050565b600061251c82612c3a565b6125268185612c6e565b9350612536818560208601612dad565b61253f81612ffa565b840191505092915050565b600061255582612c45565b61255f8185612c7f565b935061256f818560208601612dad565b61257881612ffa565b840191505092915050565b6000612590603483612c7f565b915061259b8261304d565b604082019050919050565b60006125b3602883612c7f565b91506125be8261309c565b604082019050919050565b60006125d6602b83612c7f565b91506125e1826130eb565b604082019050919050565b60006125f9602683612c7f565b91506126048261313a565b604082019050919050565b600061261c602983612c7f565b915061262782613189565b604082019050919050565b600061263f603f83612c7f565b915061264a826131d8565b604082019050919050565b6000612662602583612c7f565b915061266d82613227565b604082019050919050565b6000612685603283612c7f565b915061269082613276565b604082019050919050565b60006126a8602a83612c7f565b91506126b3826132c5565b604082019050919050565b60006126cb602083612c7f565b91506126d682613314565b602082019050919050565b60006126ee602983612c7f565b91506126f98261333d565b604082019050919050565b6000612711602983612c7f565b915061271c8261338c565b604082019050919050565b6000612734602883612c7f565b915061273f826133db565b604082019050919050565b6000612757602183612c7f565b91506127628261342a565b604082019050919050565b61277681612d84565b82525050565b61278581612d84565b82525050565b61279c61279782612d84565b612eb0565b82525050565b60006127ae828661278b565b6020820191506127be828561247e565b6014820191506127ce828461278b565b602082019150819050949350505050565b60006020820190506127f4600083018461246f565b92915050565b600060a08201905061280f600083018861246f565b61281c602083018761246f565b818103604083015261282e8186612495565b905081810360608301526128428185612495565b905081810360808301526128568184612511565b90509695505050505050565b600060a082019050612877600083018861246f565b612884602083018761246f565b612891604083018661277c565b61289e606083018561277c565b81810360808301526128b08184612511565b90509695505050505050565b600060208201905081810360008301526128d68184612495565b905092915050565b600060408201905081810360008301526128f88185612495565b9050818103602083015261290c8184612495565b90509392505050565b600060208201905061292a60008301846124f3565b92915050565b60006020820190506129456000830184612502565b92915050565b60006020820190508181036000830152612965818461254a565b905092915050565b6000602082019050818103600083015261298681612583565b9050919050565b600060208201905081810360008301526129a6816125a6565b9050919050565b600060208201905081810360008301526129c6816125c9565b9050919050565b600060208201905081810360008301526129e6816125ec565b9050919050565b60006020820190508181036000830152612a068161260f565b9050919050565b60006020820190508181036000830152612a2681612632565b9050919050565b60006020820190508181036000830152612a4681612655565b9050919050565b60006020820190508181036000830152612a6681612678565b9050919050565b60006020820190508181036000830152612a868161269b565b9050919050565b60006020820190508181036000830152612aa6816126be565b9050919050565b60006020820190508181036000830152612ac6816126e1565b9050919050565b60006020820190508181036000830152612ae681612704565b9050919050565b60006020820190508181036000830152612b0681612727565b9050919050565b60006020820190508181036000830152612b268161274a565b9050919050565b6000602082019050612b42600083018461277c565b92915050565b6000604082019050612b5d600083018561277c565b612b6a602083018461277c565b9392505050565b6000612b7b612b8c565b9050612b878282612e12565b919050565b6000604051905090565b600067ffffffffffffffff821115612bb157612bb0612fa9565b5b602082029050602081019050919050565b600067ffffffffffffffff821115612bdd57612bdc612fa9565b5b602082029050602081019050919050565b600067ffffffffffffffff821115612c0957612c08612fa9565b5b612c1282612ffa565b9050602081019050919050565b6000819050602082019050919050565b600081519050919050565b600081519050919050565b600081519050919050565b6000602082019050919050565b600082825260208201905092915050565b600082825260208201905092915050565b600082825260208201905092915050565b6000612c9b82612d84565b9150612ca683612d84565b9250827fffffffffffffffffffffffffffffffffffffffffffffffffffffffffffffffff03821115612cdb57612cda612f1c565b5b828201905092915050565b6000612cf182612d84565b9150612cfc83612d84565b925082821015612d0f57612d0e612f1c565b5b828203905092915050565b6000612d2582612d64565b9050919050565b60008115159050919050565b60007fffffffff0000000000000000000000000000000000000000000000000000000082169050919050565b600073ffffffffffffffffffffffffffffffffffffffff82169050919050565b6000819050919050565b600063ffffffff82169050919050565b82818337600083830152505050565b60005b83811015612dcb578082015181840152602081019050612db0565b83811115612dda576000848401525b50505050565b60006002820490506001821680612df857607f821691505b60208210811415612e0c57612e0b612f7a565b5b50919050565b612e1b82612ffa565b810181811067ffffffffffffffff82111715612e3a57612e39612fa9565b5b80604052505050565b6000612e4e82612d84565b91507fffffffffffffffffffffffffffffffffffffffffffffffffffffffffffffffff821415612e8157612e80612f1c565b5b600182019050919050565b6000612e9782612e9e565b9050919050565b6000612ea98261300b565b9050919050565b6000819050919050565b6000612ec582612d84565b9150612ed083612d84565b925082612ee057612edf612f4b565b5b828206905092915050565b6000612ef682612d8e565b9150612f0183612d8e565b925082612f1157612f10612f4b565b5b828206905092915050565b7f4e487b7100000000000000000000000000000000000000000000000000000000600052601160045260246000fd5b7f4e487b7100000000000000000000000000000000000000000000000000000000600052601260045260246000fd5b7f4e487b7100000000000000000000000000000000000000000000000000000000600052602260045260246000fd5b7f4e487b7100000000000000000000000000000000000000000000000000000000600052604160045260246000fd5b600060033d1115612ff75760046000803e612ff4600051613024565b90505b90565b6000601f19601f8301169050919050565b60006c0100000000000000000000000082029050919050565b60007c010000000000000000000000000000000000000000000000000000000082049050919050565b7f455243313135353a207472616e7366657220746f206e6f6e204552433131353560008201527f526563656976657220696d706c656d656e746572000000000000000000000000602082015250565b7f455243313135353a204552433131353552656365697665722072656a6563746560008201527f6420746f6b656e73000000000000000000000000000000000000000000000000602082015250565b7f455243313135353a2062616c616e636520717565727920666f7220746865207a60008201527f65726f2061646472657373000000000000000000000000000000000000000000602082015250565b7f4f776e61626c653a206e6577206f776e657220697320746865207a65726f206160008201527f6464726573730000000000000000000000000000000000000000000000000000602082015250565b7f455243313135353a2063616c6c6572206973206e6f74206f776e6572206e6f7260008201527f20617070726f7665640000000000000000000000000000000000000000000000602082015250565b7f4162737472616374436f6c6c656374696f6e3a2066656520697320696e76616c60008201527f69642e20506c656173652c20737570706c7920636f7272656374206665652e00602082015250565b7f455243313135353a207472616e7366657220746f20746865207a65726f20616460008201527f6472657373000000000000000000000000000000000000000000000000000000602082015250565b7f455243313135353a207472616e736665722063616c6c6572206973206e6f742060008201527f6f776e6572206e6f7220617070726f7665640000000000000000000000000000602082015250565b7f455243313135353a20696e73756666696369656e742062616c616e636520666f60008201527f72207472616e7366657200000000000000000000000000000000000000000000602082015250565b7f4f776e61626c653a2063616c6c6572206973206e6f7420746865206f776e6572600082015250565b7f455243313135353a2073657474696e6720617070726f76616c2073746174757360008201527f20666f722073656c660000000000000000000000000000000000000000000000602082015250565b7f455243313135353a206163636f756e747320616e6420696473206c656e67746860008201527f206d69736d617463680000000000000000000000000000000000000000000000602082015250565b7f455243313135353a2069647320616e6420616d6f756e7473206c656e6774682060008201527f6d69736d61746368000000000000000000000000000000000000000000000000602082015250565b7f455243313135353a206d696e7420746f20746865207a65726f2061646472657360008201527f7300000000000000000000000000000000000000000000000000000000000000602082015250565b600060443d10156134895761350c565b613491612b8c565b60043d036004823e80513d602482011167ffffffffffffffff821117156134b957505061350c565b808201805167ffffffffffffffff8111156134d7575050505061350c565b80602083010160043d0385018111156134f457505050505061350c565b61350382602001850186612e12565b82955050505050505b90565b61351881612d1a565b811461352357600080fd5b50565b61352f81612d2c565b811461353a57600080fd5b50565b61354681612d38565b811461355157600080fd5b50565b61355d81612d84565b811461356857600080fd5b5056fea2646970667358221220a621079b372098273900c7bf444e32c40f24e82ee9bdd3d3da62d3156e68d65164736f6c63430008040033",
  "immutableReferences": {},
  "source": "// contracts/AbstractCollection.sol\n// SPDX-License-Identifier: MIT\npragma solidity ^0.8.4;\n\nimport \"@openzeppelin/contracts/token/ERC1155/IERC1155.sol\";\nimport \"@openzeppelin/contracts/token/ERC1155/IERC1155Receiver.sol\";\nimport \"@openzeppelin/contracts/token/ERC1155/extensions/IERC1155MetadataURI.sol\";\nimport \"@openzeppelin/contracts/utils/Address.sol\";\nimport \"@openzeppelin/contracts/access/Ownable.sol\";\nimport \"@openzeppelin/contracts/utils/Strings.sol\";\nimport \"@openzeppelin/contracts/utils/introspection/ERC165.sol\";\n\ncontract AbstractCollection is Ownable, ERC165, IERC1155, IERC1155MetadataURI {\n    using Address for address;\n\n    mapping(uint256 => mapping(address => uint256)) private _balances;\n\n    mapping(address => mapping(address => bool)) private _operatorApprovals;\n\n    string private _uri;\n\n    /**\n     * @dev As opposit we can define Counter to create token ids dynamically\n     */\n\n    uint256 public constant FREE_CARD = 0;\n    uint256 public constant FANCY_CARD = 1;\n    uint256 public constant DIAMOND_CARD = 2;\n    uint256 public constant EXCLUSIVE_CARD = 3;\n\n    uint256 public constant GOLD_FEE = 100000000000000000; // 0.1 eth\n    uint256 public constant DIAMOND_FEE = 500000000000000000; // 0.5 eth\n    uint256 _ownerWithdrawal = 0;\n\n    /**\n     * @dev emit event on ERC1155Received hook\n     */\n\n    event AfterTokenReceived(bytes4 hola);\n\n    constructor(\n        string memory uri_,\n        uint256 freeAmount_,\n        uint256 fancyAmount_,\n        uint256 diamondAmount_,\n        uint256 exclusiveAmount\n    ) {\n        _mint(_msgSender(), FREE_CARD, freeAmount_, \"\");\n        _mint(_msgSender(), FANCY_CARD, fancyAmount_, \"\");\n        _mint(_msgSender(), DIAMOND_CARD, diamondAmount_, \"\");\n        _mint(_msgSender(), EXCLUSIVE_CARD, exclusiveAmount, \"\");\n        _setURI(uri_);\n    }\n\n    /**\n     * @dev This is a pseudo random function. Not production ready.\n     */\n\n    uint256 randNonce = 0;\n\n    function _randByMod(uint256 _modulus) internal returns (uint256) {\n        randNonce++;\n        return\n            uint256(\n                keccak256(\n                    abi.encodePacked(block.timestamp, _msgSender(), randNonce)\n                )\n            ) % _modulus;\n    }\n\n    /**\n     * @dev Returns token type based on users supplyFee\n     */\n\n    function _getCollectionTypeId(uint256 _supplyFee)\n        private\n        returns (uint256)\n    {\n        uint32 rand = uint32(_randByMod(1000000));\n        uint32 chance;\n\n        if (_supplyFee == DIAMOND_FEE) {\n            chance = 2;\n        } else if (_supplyFee == GOLD_FEE) {\n            chance = 9;\n        } else if (_supplyFee == 0) {\n            chance = 9999;\n        }\n\n        uint256 k = rand % chance;\n\n        if (k == 0) {\n            return DIAMOND_CARD;\n        } else if (k > 0 && k < 10) {\n            return FANCY_CARD;\n        } else {\n            return FREE_CARD;\n        }\n    }\n\n    function _createNewCollectionCard(uint256 _supplyFee) internal {\n        uint256 tokenId = _getCollectionTypeId(_supplyFee);\n\n        _mint(_msgSender(), tokenId, 1, \"\");\n    }\n\n    function getFreeCollectionCard() external {\n        _createNewCollectionCard(0);\n    }\n\n    function getRareCollectionCard() external payable {\n        require(\n            msg.value == GOLD_FEE || msg.value == DIAMOND_FEE,\n            \"AbstractCollection: fee is invalid. Please, supply correct fee.\"\n        );\n\n        _ownerWithdrawal += msg.value;\n        _createNewCollectionCard(msg.value);\n    }\n\n    function ownerWithdraw(uint256 _amount) external onlyOwner returns (bool) {\n        if (_amount > 0) {\n            _ownerWithdrawal -= _amount;\n            if (!payable(owner()).send(_amount)) {\n                _ownerWithdrawal += _amount;\n                return false;\n            }\n        }\n        return true;\n    }\n\n    /**\n     * @dev See {IERC165-supportsInterface}.\n     */\n    function supportsInterface(bytes4 interfaceId)\n        public\n        view\n        virtual\n        override(ERC165, IERC165)\n        returns (bool)\n    {\n        return\n            interfaceId == type(IERC1155).interfaceId ||\n            interfaceId == type(IERC1155MetadataURI).interfaceId ||\n            super.supportsInterface(interfaceId);\n    }\n\n    /**\n     * @dev See {IERC1155MetadataURI-uri}.\n     *\n     * This implementation returns the same URI for *all* token types. It relies\n     * on the token type ID substitution mechanism\n     * https://eips.ethereum.org/EIPS/eip-1155#metadata[defined in the EIP].\n     *\n     * Clients calling this function must replace the `\\{id\\}` substring with the\n     * actual token type ID.\n     */\n\n    /** \n     @notice we can also implement token URI storage to store different uri per token in way mapping (uint256 => string) private _tokenURIs;\n     */\n\n    function uri(uint256) public view virtual override returns (string memory) {\n        return _uri;\n    }\n\n    /**\n     * @dev See {IERC1155-balanceOf}.\n     *\n     * Requirements:\n     *\n     * - `account` cannot be the zero address.\n     */\n    function balanceOf(address account, uint256 id)\n        public\n        view\n        virtual\n        override\n        returns (uint256)\n    {\n        require(\n            account != address(0),\n            \"ERC1155: balance query for the zero address\"\n        );\n        return _balances[id][account];\n    }\n\n    /**\n     * @dev See {IERC1155-balanceOfBatch}.\n     *\n     * Requirements:\n     *\n     * - `accounts` and `ids` must have the same length.\n     */\n    function balanceOfBatch(address[] memory accounts, uint256[] memory ids)\n        public\n        view\n        virtual\n        override\n        returns (uint256[] memory)\n    {\n        require(\n            accounts.length == ids.length,\n            \"ERC1155: accounts and ids length mismatch\"\n        );\n\n        uint256[] memory batchBalances = new uint256[](accounts.length);\n\n        for (uint256 i = 0; i < accounts.length; ++i) {\n            batchBalances[i] = balanceOf(accounts[i], ids[i]);\n        }\n\n        return batchBalances;\n    }\n\n    /**\n     * @dev See {IERC1155-setApprovalForAll}.\n     */\n    function setApprovalForAll(address operator, bool approved)\n        public\n        virtual\n        override\n    {\n        require(\n            _msgSender() != operator,\n            \"ERC1155: setting approval status for self\"\n        );\n\n        _operatorApprovals[_msgSender()][operator] = approved;\n        emit ApprovalForAll(_msgSender(), operator, approved);\n    }\n\n    /**\n     * @dev See {IERC1155-isApprovedForAll}.\n     */\n    function isApprovedForAll(address account, address operator)\n        public\n        view\n        virtual\n        override\n        returns (bool)\n    {\n        return _operatorApprovals[account][operator];\n    }\n\n    /**\n     * @dev See {IERC1155-safeTransferFrom}.\n     */\n    function safeTransferFrom(\n        address from,\n        address to,\n        uint256 id,\n        uint256 amount,\n        bytes memory data\n    ) public virtual override {\n        require(to != address(0), \"ERC1155: transfer to the zero address\");\n        require(\n            from == _msgSender() || isApprovedForAll(from, _msgSender()),\n            \"ERC1155: caller is not owner nor approved\"\n        );\n\n        address operator = _msgSender();\n\n        _beforeTokenTransfer(\n            operator,\n            from,\n            to,\n            _asSingletonArray(id),\n            _asSingletonArray(amount),\n            data\n        );\n\n        uint256 fromBalance = _balances[id][from];\n        require(\n            fromBalance >= amount,\n            \"ERC1155: insufficient balance for transfer\"\n        );\n        _balances[id][from] = fromBalance - amount;\n        _balances[id][to] += amount;\n\n        emit TransferSingle(operator, from, to, id, amount);\n\n        _doSafeTransferAcceptanceCheck(operator, from, to, id, amount, data);\n    }\n\n    /**\n     * @dev See {IERC1155-safeBatchTransferFrom}.\n     */\n    function safeBatchTransferFrom(\n        address from,\n        address to,\n        uint256[] memory ids,\n        uint256[] memory amounts,\n        bytes memory data\n    ) public virtual override {\n        require(\n            ids.length == amounts.length,\n            \"ERC1155: ids and amounts length mismatch\"\n        );\n        require(to != address(0), \"ERC1155: transfer to the zero address\");\n        require(\n            from == _msgSender() || isApprovedForAll(from, _msgSender()),\n            \"ERC1155: transfer caller is not owner nor approved\"\n        );\n\n        address operator = _msgSender();\n\n        _beforeTokenTransfer(operator, from, to, ids, amounts, data);\n\n        for (uint256 i = 0; i < ids.length; ++i) {\n            uint256 id = ids[i];\n            uint256 amount = amounts[i];\n\n            uint256 fromBalance = _balances[id][from];\n            require(\n                fromBalance >= amount,\n                \"ERC1155: insufficient balance for transfer\"\n            );\n            _balances[id][from] = fromBalance - amount;\n            _balances[id][to] += amount;\n        }\n\n        emit TransferBatch(operator, from, to, ids, amounts);\n\n        _doSafeBatchTransferAcceptanceCheck(\n            operator,\n            from,\n            to,\n            ids,\n            amounts,\n            data\n        );\n    }\n\n    /**\n     * @dev Sets a new URI for all token types, by relying on the token type ID\n     * substitution mechanism\n     * https://eips.ethereum.org/EIPS/eip-1155#metadata[defined in the EIP].\n     *\n     * By this mechanism, any occurrence of the `\\{id\\}` substring in either the\n     * URI or any of the amounts in the JSON file at said URI will be replaced by\n     * clients with the token type ID.\n     *\n     * For example, the `https://token-cdn-domain/\\{id\\}.json` URI would be\n     * interpreted by clients as\n     * `https://token-cdn-domain/000000000000000000000000000000000000000000000000000000000004cce0.json`\n     * for token type ID 0x4cce0.\n     *\n     * See {uri}.\n     *\n     * Because these URIs cannot be meaningfully represented by the {URI} event,\n     * this function emits no events.\n     */\n    function _setURI(string memory newuri) internal virtual {\n        _uri = newuri;\n    }\n\n    /**\n     * @dev Creates `amount` tokens of token type `id`, and assigns them to `account`.\n     *\n     * Emits a {TransferSingle} event.\n     *\n     * Requirements:\n     *\n     * - `account` cannot be the zero address.\n     * - If `account` refers to a smart contract, it must implement {IERC1155Receiver-onERC1155Received} and return the\n     * acceptance magic value.\n     */\n    function _mint(\n        address account,\n        uint256 id,\n        uint256 amount,\n        bytes memory data\n    ) internal virtual {\n        require(account != address(0), \"ERC1155: mint to the zero address\");\n\n        address operator = _msgSender();\n\n        _beforeTokenTransfer(\n            operator,\n            address(0),\n            account,\n            _asSingletonArray(id),\n            _asSingletonArray(amount),\n            data\n        );\n\n        _balances[id][account] += amount;\n        emit TransferSingle(operator, address(0), account, id, amount);\n\n        _doSafeTransferAcceptanceCheck(\n            operator,\n            address(0),\n            account,\n            id,\n            amount,\n            data\n        );\n    }\n\n    /**\n     * @dev xref:ROOT:erc1155.adoc#batch-operations[Batched] version of {_mint}.\n     *\n     * Requirements:\n     *\n     * - `ids` and `amounts` must have the same length.\n     * - If `to` refers to a smart contract, it must implement {IERC1155Receiver-onERC1155BatchReceived} and return the\n     * acceptance magic value.\n     */\n    function _mintBatch(\n        address to,\n        uint256[] memory ids,\n        uint256[] memory amounts,\n        bytes memory data\n    ) internal virtual {\n        require(to != address(0), \"ERC1155: mint to the zero address\");\n        require(\n            ids.length == amounts.length,\n            \"ERC1155: ids and amounts length mismatch\"\n        );\n\n        address operator = _msgSender();\n\n        _beforeTokenTransfer(operator, address(0), to, ids, amounts, data);\n\n        for (uint256 i = 0; i < ids.length; i++) {\n            _balances[ids[i]][to] += amounts[i];\n        }\n\n        emit TransferBatch(operator, address(0), to, ids, amounts);\n\n        _doSafeBatchTransferAcceptanceCheck(\n            operator,\n            address(0),\n            to,\n            ids,\n            amounts,\n            data\n        );\n    }\n\n    /**\n     * @dev Destroys `amount` tokens of token type `id` from `account`\n     *\n     * Requirements:\n     *\n     * - `account` cannot be the zero address.\n     * - `account` must have at least `amount` tokens of token type `id`.\n     */\n    function _burn(\n        address account,\n        uint256 id,\n        uint256 amount\n    ) internal virtual {\n        require(account != address(0), \"ERC1155: burn from the zero address\");\n\n        address operator = _msgSender();\n\n        _beforeTokenTransfer(\n            operator,\n            account,\n            address(0),\n            _asSingletonArray(id),\n            _asSingletonArray(amount),\n            \"\"\n        );\n\n        uint256 accountBalance = _balances[id][account];\n        require(\n            accountBalance >= amount,\n            \"ERC1155: burn amount exceeds balance\"\n        );\n        _balances[id][account] = accountBalance - amount;\n\n        emit TransferSingle(operator, account, address(0), id, amount);\n    }\n\n    /**\n     * @dev xref:ROOT:erc1155.adoc#batch-operations[Batched] version of {_burn}.\n     *\n     * Requirements:\n     *\n     * - `ids` and `amounts` must have the same length.\n     */\n    function _burnBatch(\n        address account,\n        uint256[] memory ids,\n        uint256[] memory amounts\n    ) internal virtual {\n        require(account != address(0), \"ERC1155: burn from the zero address\");\n        require(\n            ids.length == amounts.length,\n            \"ERC1155: ids and amounts length mismatch\"\n        );\n\n        address operator = _msgSender();\n\n        _beforeTokenTransfer(operator, account, address(0), ids, amounts, \"\");\n\n        for (uint256 i = 0; i < ids.length; i++) {\n            uint256 id = ids[i];\n            uint256 amount = amounts[i];\n\n            uint256 accountBalance = _balances[id][account];\n            require(\n                accountBalance >= amount,\n                \"ERC1155: burn amount exceeds balance\"\n            );\n            _balances[id][account] = accountBalance - amount;\n        }\n\n        emit TransferBatch(operator, account, address(0), ids, amounts);\n    }\n\n    /**\n     * @dev Hook that is called before any token transfer. This includes minting\n     * and burning, as well as batched variants.\n     *\n     * The same hook is called on both single and batched variants. For single\n     * transfers, the length of the `id` and `amount` arrays will be 1.\n     *\n     * Calling conditions (for each `id` and `amount` pair):\n     *\n     * - When `from` and `to` are both non-zero, `amount` of ``from``'s tokens\n     * of token type `id` will be  transferred to `to`.\n     * - When `from` is zero, `amount` tokens of token type `id` will be minted\n     * for `to`.\n     * - when `to` is zero, `amount` of ``from``'s tokens of token type `id`\n     * will be burned.\n     * - `from` and `to` are never both zero.\n     * - `ids` and `amounts` have the same, non-zero length.\n     *\n     * To learn more about hooks, head to xref:ROOT:extending-contracts.adoc#using-hooks[Using Hooks].\n     */\n    function _beforeTokenTransfer(\n        address operator,\n        address from,\n        address to,\n        uint256[] memory ids,\n        uint256[] memory amounts,\n        bytes memory data\n    ) internal virtual {}\n\n    function _doSafeTransferAcceptanceCheck(\n        address operator,\n        address from,\n        address to,\n        uint256 id,\n        uint256 amount,\n        bytes memory data\n    ) private {\n        if (to.isContract()) {\n            try\n                IERC1155Receiver(to).onERC1155Received(\n                    operator,\n                    from,\n                    id,\n                    amount,\n                    data\n                )\n            returns (bytes4 response) {\n                if (\n                    response != IERC1155Receiver(to).onERC1155Received.selector\n                ) {\n                    revert(\"ERC1155: ERC1155Receiver rejected tokens\");\n                } else {\n                    emit AfterTokenReceived(response);\n                }\n            } catch Error(string memory reason) {\n                revert(reason);\n            } catch {\n                revert(\"ERC1155: transfer to non ERC1155Receiver implementer\");\n            }\n        }\n    }\n\n    function _doSafeBatchTransferAcceptanceCheck(\n        address operator,\n        address from,\n        address to,\n        uint256[] memory ids,\n        uint256[] memory amounts,\n        bytes memory data\n    ) private {\n        if (to.isContract()) {\n            try\n                IERC1155Receiver(to).onERC1155BatchReceived(\n                    operator,\n                    from,\n                    ids,\n                    amounts,\n                    data\n                )\n            returns (bytes4 response) {\n                if (\n                    response !=\n                    IERC1155Receiver(to).onERC1155BatchReceived.selector\n                ) {\n                    revert(\"ERC1155: ERC1155Receiver rejected tokens\");\n                }\n            } catch Error(string memory reason) {\n                revert(reason);\n            } catch {\n                revert(\"ERC1155: transfer to non ERC1155Receiver implementer\");\n            }\n        }\n    }\n\n    function _asSingletonArray(uint256 element)\n        private\n        pure\n        returns (uint256[] memory)\n    {\n        uint256[] memory array = new uint256[](1);\n        array[0] = element;\n\n        return array;\n    }\n}\n",
  "sourcePath": "/Users/denis/_/prof-it/contracts/AbstractCollection.sol",
  "compiler": {
    "name": "solc",
    "version": "0.8.4+commit.c7e474f2.Linux.g++"
  },
  "schemaVersion": "3.4.0",
  "updatedAt": "2021-05-06T13:17:40.963Z",
  "networkType": "ethereum",
  "devdoc": {
    "events": {
      "AfterTokenReceived(bytes4)": {
        "details": "emit event on ERC1155Received hook"
      }
    },
    "kind": "dev",
    "methods": {
      "balanceOf(address,uint256)": {
        "details": "See {IERC1155-balanceOf}. Requirements: - `account` cannot be the zero address."
      },
      "balanceOfBatch(address[],uint256[])": {
        "details": "See {IERC1155-balanceOfBatch}. Requirements: - `accounts` and `ids` must have the same length."
      },
      "isApprovedForAll(address,address)": {
        "details": "See {IERC1155-isApprovedForAll}."
      },
      "owner()": {
        "details": "Returns the address of the current owner."
      },
      "renounceOwnership()": {
        "details": "Leaves the contract without owner. It will not be possible to call `onlyOwner` functions anymore. Can only be called by the current owner. NOTE: Renouncing ownership will leave the contract without an owner, thereby removing any functionality that is only available to the owner."
      },
      "safeBatchTransferFrom(address,address,uint256[],uint256[],bytes)": {
        "details": "See {IERC1155-safeBatchTransferFrom}."
      },
      "safeTransferFrom(address,address,uint256,uint256,bytes)": {
        "details": "See {IERC1155-safeTransferFrom}."
      },
      "setApprovalForAll(address,bool)": {
        "details": "See {IERC1155-setApprovalForAll}."
      },
      "supportsInterface(bytes4)": {
        "details": "See {IERC165-supportsInterface}."
      },
      "transferOwnership(address)": {
        "details": "Transfers ownership of the contract to a new account (`newOwner`). Can only be called by the current owner."
      }
    },
    "stateVariables": {
      "FREE_CARD": {
        "details": "As opposit we can define Counter to create token ids dynamically"
      },
      "randNonce": {
        "details": "This is a pseudo random function. Not production ready."
      }
    },
    "version": 1
  },
  "userdoc": {
    "kind": "user",
    "methods": {
      "uri(uint256)": {
        "notice": "we can also implement token URI storage to store different uri per token in way mapping (uint256 => string) private _tokenURIs;"
      }
    },
    "version": 1
  }
}