{
  "contractName": "TokenERC1155",
  "abi": [
    {
      "inputs": [
        {
          "internalType": "string",
          "name": "uri_",
          "type": "string"
        }
      ],
      "stateMutability": "nonpayable",
      "type": "constructor"
    },
    {
      "anonymous": false,
      "inputs": [
        {
          "indexed": false,
          "internalType": "bytes4",
          "name": "hola",
          "type": "bytes4"
        }
      ],
      "name": "AfterTokenReceived",
      "type": "event"
    },
    {
      "anonymous": false,
      "inputs": [
        {
          "indexed": true,
          "internalType": "address",
          "name": "account",
          "type": "address"
        },
        {
          "indexed": true,
          "internalType": "address",
          "name": "operator",
          "type": "address"
        },
        {
          "indexed": false,
          "internalType": "bool",
          "name": "approved",
          "type": "bool"
        }
      ],
      "name": "ApprovalForAll",
      "type": "event"
    },
    {
      "anonymous": false,
      "inputs": [
        {
          "indexed": true,
          "internalType": "address",
          "name": "previousOwner",
          "type": "address"
        },
        {
          "indexed": true,
          "internalType": "address",
          "name": "newOwner",
          "type": "address"
        }
      ],
      "name": "OwnershipTransferred",
      "type": "event"
    },
    {
      "anonymous": false,
      "inputs": [
        {
          "indexed": true,
          "internalType": "address",
          "name": "operator",
          "type": "address"
        },
        {
          "indexed": true,
          "internalType": "address",
          "name": "from",
          "type": "address"
        },
        {
          "indexed": true,
          "internalType": "address",
          "name": "to",
          "type": "address"
        },
        {
          "indexed": false,
          "internalType": "uint256[]",
          "name": "ids",
          "type": "uint256[]"
        },
        {
          "indexed": false,
          "internalType": "uint256[]",
          "name": "values",
          "type": "uint256[]"
        }
      ],
      "name": "TransferBatch",
      "type": "event"
    },
    {
      "anonymous": false,
      "inputs": [
        {
          "indexed": true,
          "internalType": "address",
          "name": "operator",
          "type": "address"
        },
        {
          "indexed": true,
          "internalType": "address",
          "name": "from",
          "type": "address"
        },
        {
          "indexed": true,
          "internalType": "address",
          "name": "to",
          "type": "address"
        },
        {
          "indexed": false,
          "internalType": "uint256",
          "name": "id",
          "type": "uint256"
        },
        {
          "indexed": false,
          "internalType": "uint256",
          "name": "value",
          "type": "uint256"
        }
      ],
      "name": "TransferSingle",
      "type": "event"
    },
    {
      "anonymous": false,
      "inputs": [
        {
          "indexed": false,
          "internalType": "string",
          "name": "value",
          "type": "string"
        },
        {
          "indexed": true,
          "internalType": "uint256",
          "name": "id",
          "type": "uint256"
        }
      ],
      "name": "URI",
      "type": "event"
    },
    {
      "inputs": [],
      "name": "owner",
      "outputs": [
        {
          "internalType": "address",
          "name": "",
          "type": "address"
        }
      ],
      "stateMutability": "view",
      "type": "function",
      "constant": true
    },
    {
      "inputs": [],
      "name": "renounceOwnership",
      "outputs": [],
      "stateMutability": "nonpayable",
      "type": "function"
    },
    {
      "inputs": [
        {
          "internalType": "address",
          "name": "newOwner",
          "type": "address"
        }
      ],
      "name": "transferOwnership",
      "outputs": [],
      "stateMutability": "nonpayable",
      "type": "function"
    },
    {
      "inputs": [
        {
          "internalType": "bool",
          "name": "_status",
          "type": "bool"
        }
      ],
      "name": "setTransferStatus",
      "outputs": [],
      "stateMutability": "nonpayable",
      "type": "function"
    },
    {
      "inputs": [
        {
          "internalType": "address",
          "name": "recipient",
          "type": "address"
        },
        {
          "internalType": "uint256",
          "name": "tokenId",
          "type": "uint256"
        },
        {
          "internalType": "uint256",
          "name": "amount",
          "type": "uint256"
        }
      ],
      "name": "mint",
      "outputs": [],
      "stateMutability": "nonpayable",
      "type": "function"
    },
    {
      "inputs": [
        {
          "internalType": "bytes4",
          "name": "interfaceId",
          "type": "bytes4"
        }
      ],
      "name": "supportsInterface",
      "outputs": [
        {
          "internalType": "bool",
          "name": "",
          "type": "bool"
        }
      ],
      "stateMutability": "view",
      "type": "function",
      "constant": true
    },
    {
      "inputs": [
        {
          "internalType": "uint256",
          "name": "",
          "type": "uint256"
        }
      ],
      "name": "uri",
      "outputs": [
        {
          "internalType": "string",
          "name": "",
          "type": "string"
        }
      ],
      "stateMutability": "view",
      "type": "function",
      "constant": true
    },
    {
      "inputs": [
        {
          "internalType": "address",
          "name": "account",
          "type": "address"
        },
        {
          "internalType": "uint256",
          "name": "id",
          "type": "uint256"
        }
      ],
      "name": "balanceOf",
      "outputs": [
        {
          "internalType": "uint256",
          "name": "",
          "type": "uint256"
        }
      ],
      "stateMutability": "view",
      "type": "function",
      "constant": true
    },
    {
      "inputs": [
        {
          "internalType": "address[]",
          "name": "accounts",
          "type": "address[]"
        },
        {
          "internalType": "uint256[]",
          "name": "ids",
          "type": "uint256[]"
        }
      ],
      "name": "balanceOfBatch",
      "outputs": [
        {
          "internalType": "uint256[]",
          "name": "",
          "type": "uint256[]"
        }
      ],
      "stateMutability": "view",
      "type": "function",
      "constant": true
    },
    {
      "inputs": [
        {
          "internalType": "address",
          "name": "operator",
          "type": "address"
        },
        {
          "internalType": "bool",
          "name": "approved",
          "type": "bool"
        }
      ],
      "name": "setApprovalForAll",
      "outputs": [],
      "stateMutability": "nonpayable",
      "type": "function"
    },
    {
      "inputs": [
        {
          "internalType": "address",
          "name": "account",
          "type": "address"
        },
        {
          "internalType": "address",
          "name": "operator",
          "type": "address"
        }
      ],
      "name": "isApprovedForAll",
      "outputs": [
        {
          "internalType": "bool",
          "name": "",
          "type": "bool"
        }
      ],
      "stateMutability": "view",
      "type": "function",
      "constant": true
    },
    {
      "inputs": [
        {
          "internalType": "address",
          "name": "from",
          "type": "address"
        },
        {
          "internalType": "address",
          "name": "to",
          "type": "address"
        },
        {
          "internalType": "uint256",
          "name": "id",
          "type": "uint256"
        },
        {
          "internalType": "uint256",
          "name": "amount",
          "type": "uint256"
        },
        {
          "internalType": "bytes",
          "name": "data",
          "type": "bytes"
        }
      ],
      "name": "safeTransferFrom",
      "outputs": [],
      "stateMutability": "nonpayable",
      "type": "function"
    },
    {
      "inputs": [
        {
          "internalType": "address",
          "name": "from",
          "type": "address"
        },
        {
          "internalType": "address",
          "name": "to",
          "type": "address"
        },
        {
          "internalType": "uint256[]",
          "name": "ids",
          "type": "uint256[]"
        },
        {
          "internalType": "uint256[]",
          "name": "amounts",
          "type": "uint256[]"
        },
        {
          "internalType": "bytes",
          "name": "data",
          "type": "bytes"
        }
      ],
      "name": "safeBatchTransferFrom",
      "outputs": [],
      "stateMutability": "nonpayable",
      "type": "function"
    }
  ],
  "bytecode": "0x60806040526000600460006101000a81548160ff0219169083151502179055503480156200002c57600080fd5b50604051620034dc380380620034dc833981810160405281019062000052919062000260565b6000620000646200011a60201b60201c565b9050806000806101000a81548173ffffffffffffffffffffffffffffffffffffffff021916908373ffffffffffffffffffffffffffffffffffffffff1602179055508073ffffffffffffffffffffffffffffffffffffffff16600073ffffffffffffffffffffffffffffffffffffffff167f8be0079c531659141344cd1fd0a4f28419497f9722a3daafe3b4186f6b6457e060405160405180910390a35062000113816200012260201b60201c565b5062000415565b600033905090565b80600390805190602001906200013a9291906200013e565b5050565b8280546200014c906200033a565b90600052602060002090601f016020900481019282620001705760008555620001bc565b82601f106200018b57805160ff1916838001178555620001bc565b82800160010185558215620001bc579182015b82811115620001bb5782518255916020019190600101906200019e565b5b509050620001cb9190620001cf565b5090565b5b80821115620001ea576000816000905550600101620001d0565b5090565b600062000205620001ff84620002ce565b620002a5565b9050828152602081018484840111156200021e57600080fd5b6200022b84828562000304565b509392505050565b600082601f8301126200024557600080fd5b815162000257848260208601620001ee565b91505092915050565b6000602082840312156200027357600080fd5b600082015167ffffffffffffffff8111156200028e57600080fd5b6200029c8482850162000233565b91505092915050565b6000620002b1620002c4565b9050620002bf828262000370565b919050565b6000604051905090565b600067ffffffffffffffff821115620002ec57620002eb620003d5565b5b620002f78262000404565b9050602081019050919050565b60005b838110156200032457808201518184015260208101905062000307565b8381111562000334576000848401525b50505050565b600060028204905060018216806200035357607f821691505b602082108114156200036a5762000369620003a6565b5b50919050565b6200037b8262000404565b810181811067ffffffffffffffff821117156200039d576200039c620003d5565b5b80604052505050565b7f4e487b7100000000000000000000000000000000000000000000000000000000600052602260045260246000fd5b7f4e487b7100000000000000000000000000000000000000000000000000000000600052604160045260246000fd5b6000601f19601f8301169050919050565b6130b780620004256000396000f3fe608060405234801561001057600080fd5b50600436106100ce5760003560e01c80634e1273f41161008c578063a22cb46511610066578063a22cb4651461020f578063e985e9c51461022b578063f242432a1461025b578063f2fde38b14610277576100ce565b80634e1273f4146101b7578063715018a6146101e75780638da5cb5b146101f1576100ce565b8062fdd58e146100d357806301ffc9a7146101035780630e89341c14610133578063156e29f6146101635780632eb2c2d61461017f578063493770cc1461019b575b600080fd5b6100ed60048036038101906100e89190611f67565b610293565b6040516100fa919061276d565b60405180910390f35b61011d60048036038101906101189190612087565b61035d565b60405161012a9190612555565b60405180910390f35b61014d600480360381019061014891906120d9565b61043f565b60405161015a919061258b565b60405180910390f35b61017d60048036038101906101789190611fa3565b6104d3565b005b61019960048036038101906101949190611ddd565b61056f565b005b6101b560048036038101906101b0919061205e565b6109b7565b005b6101d160048036038101906101cc9190611ff2565b610a50565b6040516101de91906124fc565b60405180910390f35b6101ef610c01565b005b6101f9610d3b565b604051610206919061241f565b60405180910390f35b61022960048036038101906102249190611f2b565b610d64565b005b61024560048036038101906102409190611da1565b610ee5565b6040516102529190612555565b60405180910390f35b61027560048036038101906102709190611e9c565b610f79565b005b610291600480360381019061028c9190611d78565b6112e3565b005b60008073ffffffffffffffffffffffffffffffffffffffff168373ffffffffffffffffffffffffffffffffffffffff161415610304576040517f08c379a00000000000000000000000000000000000000000000000000000000081526004016102fb906125ed565b60405180910390fd5b6001600083815260200190815260200160002060008473ffffffffffffffffffffffffffffffffffffffff1673ffffffffffffffffffffffffffffffffffffffff16815260200190815260200160002054905092915050565b60007fd9b67a26000000000000000000000000000000000000000000000000000000007bffffffffffffffffffffffffffffffffffffffffffffffffffffffff1916827bffffffffffffffffffffffffffffffffffffffffffffffffffffffff1916148061042857507f0e89341c000000000000000000000000000000000000000000000000000000007bffffffffffffffffffffffffffffffffffffffffffffffffffffffff1916827bffffffffffffffffffffffffffffffffffffffffffffffffffffffff1916145b8061043857506104378261148c565b5b9050919050565b60606003805461044e90612a10565b80601f016020809104026020016040519081016040528092919081815260200182805461047a90612a10565b80156104c75780601f1061049c576101008083540402835291602001916104c7565b820191906000526020600020905b8154815290600101906020018083116104aa57829003601f168201915b50505050509050919050565b6104db6114f6565b73ffffffffffffffffffffffffffffffffffffffff166104f9610d3b565b73ffffffffffffffffffffffffffffffffffffffff161461054f576040517f08c379a0000000000000000000000000000000000000000000000000000000008152600401610546906126cd565b60405180910390fd5b61056a838383604051806020016040528060008152506114fe565b505050565b600460009054906101000a900460ff166105be576040517f08c379a00000000000000000000000000000000000000000000000000000000081526004016105b5906126ad565b60405180910390fd5b8151835114610602576040517f08c379a00000000000000000000000000000000000000000000000000000000081526004016105f99061272d565b60405180910390fd5b600073ffffffffffffffffffffffffffffffffffffffff168473ffffffffffffffffffffffffffffffffffffffff161415610672576040517f08c379a00000000000000000000000000000000000000000000000000000000081526004016106699061264d565b60405180910390fd5b61067a6114f6565b73ffffffffffffffffffffffffffffffffffffffff168573ffffffffffffffffffffffffffffffffffffffff1614806106c057506106bf856106ba6114f6565b610ee5565b5b6106ff576040517f08c379a00000000000000000000000000000000000000000000000000000000081526004016106f69061266d565b60405180910390fd5b60006107096114f6565b9050610719818787878787611695565b60005b8451811015610922576000858281518110610760577f4e487b7100000000000000000000000000000000000000000000000000000000600052603260045260246000fd5b6020026020010151905060008583815181106107a5577f4e487b7100000000000000000000000000000000000000000000000000000000600052603260045260246000fd5b6020026020010151905060006001600084815260200190815260200160002060008b73ffffffffffffffffffffffffffffffffffffffff1673ffffffffffffffffffffffffffffffffffffffff16815260200190815260200160002054905081811015610847576040517f08c379a000000000000000000000000000000000000000000000000000000000815260040161083e9061268d565b60405180910390fd5b81816108539190612926565b6001600085815260200190815260200160002060008c73ffffffffffffffffffffffffffffffffffffffff1673ffffffffffffffffffffffffffffffffffffffff16815260200190815260200160002081905550816001600085815260200190815260200160002060008b73ffffffffffffffffffffffffffffffffffffffff1673ffffffffffffffffffffffffffffffffffffffff168152602001908152602001600020600082825461090791906128d0565b925050819055505050508061091b90612a73565b905061071c565b508473ffffffffffffffffffffffffffffffffffffffff168673ffffffffffffffffffffffffffffffffffffffff168273ffffffffffffffffffffffffffffffffffffffff167f4a39dc06d4c0dbc64b70af90fd698a233a518aa5d07e595d983b8c0526c8f7fb878760405161099992919061251e565b60405180910390a46109af81878787878761169d565b505050505050565b6109bf6114f6565b73ffffffffffffffffffffffffffffffffffffffff166109dd610d3b565b73ffffffffffffffffffffffffffffffffffffffff1614610a33576040517f08c379a0000000000000000000000000000000000000000000000000000000008152600401610a2a906126cd565b60405180910390fd5b80600460006101000a81548160ff02191690831515021790555050565b60608151835114610a96576040517f08c379a0000000000000000000000000000000000000000000000000000000008152600401610a8d9061270d565b60405180910390fd5b6000835167ffffffffffffffff811115610ad9577f4e487b7100000000000000000000000000000000000000000000000000000000600052604160045260246000fd5b604051908082528060200260200182016040528015610b075781602001602082028036833780820191505090505b50905060005b8451811015610bf657610ba0858281518110610b52577f4e487b7100000000000000000000000000000000000000000000000000000000600052603260045260246000fd5b6020026020010151858381518110610b93577f4e487b7100000000000000000000000000000000000000000000000000000000600052603260045260246000fd5b6020026020010151610293565b828281518110610bd9577f4e487b7100000000000000000000000000000000000000000000000000000000600052603260045260246000fd5b60200260200101818152505080610bef90612a73565b9050610b0d565b508091505092915050565b610c096114f6565b73ffffffffffffffffffffffffffffffffffffffff16610c27610d3b565b73ffffffffffffffffffffffffffffffffffffffff1614610c7d576040517f08c379a0000000000000000000000000000000000000000000000000000000008152600401610c74906126cd565b60405180910390fd5b600073ffffffffffffffffffffffffffffffffffffffff1660008054906101000a900473ffffffffffffffffffffffffffffffffffffffff1673ffffffffffffffffffffffffffffffffffffffff167f8be0079c531659141344cd1fd0a4f28419497f9722a3daafe3b4186f6b6457e060405160405180910390a360008060006101000a81548173ffffffffffffffffffffffffffffffffffffffff021916908373ffffffffffffffffffffffffffffffffffffffff160217905550565b60008060009054906101000a900473ffffffffffffffffffffffffffffffffffffffff16905090565b8173ffffffffffffffffffffffffffffffffffffffff16610d836114f6565b73ffffffffffffffffffffffffffffffffffffffff161415610dda576040517f08c379a0000000000000000000000000000000000000000000000000000000008152600401610dd1906126ed565b60405180910390fd5b8060026000610de76114f6565b73ffffffffffffffffffffffffffffffffffffffff1673ffffffffffffffffffffffffffffffffffffffff16815260200190815260200160002060008473ffffffffffffffffffffffffffffffffffffffff1673ffffffffffffffffffffffffffffffffffffffff16815260200190815260200160002060006101000a81548160ff0219169083151502179055508173ffffffffffffffffffffffffffffffffffffffff16610e946114f6565b73ffffffffffffffffffffffffffffffffffffffff167f17307eab39ab6107e8899845ad3d59bd9653f200f220920489ca2b5937696c3183604051610ed99190612555565b60405180910390a35050565b6000600260008473ffffffffffffffffffffffffffffffffffffffff1673ffffffffffffffffffffffffffffffffffffffff16815260200190815260200160002060008373ffffffffffffffffffffffffffffffffffffffff1673ffffffffffffffffffffffffffffffffffffffff16815260200190815260200160002060009054906101000a900460ff16905092915050565b600460009054906101000a900460ff16610fc8576040517f08c379a0000000000000000000000000000000000000000000000000000000008152600401610fbf906126ad565b60405180910390fd5b600073ffffffffffffffffffffffffffffffffffffffff168473ffffffffffffffffffffffffffffffffffffffff161415611038576040517f08c379a000000000000000000000000000000000000000000000000000000000815260040161102f9061264d565b60405180910390fd5b6110406114f6565b73ffffffffffffffffffffffffffffffffffffffff168573ffffffffffffffffffffffffffffffffffffffff1614806110865750611085856110806114f6565b610ee5565b5b6110c5576040517f08c379a00000000000000000000000000000000000000000000000000000000081526004016110bc9061262d565b60405180910390fd5b60006110cf6114f6565b90506110ef8187876110e088611884565b6110e988611884565b87611695565b60006001600086815260200190815260200160002060008873ffffffffffffffffffffffffffffffffffffffff1673ffffffffffffffffffffffffffffffffffffffff16815260200190815260200160002054905083811015611187576040517f08c379a000000000000000000000000000000000000000000000000000000000815260040161117e9061268d565b60405180910390fd5b83816111939190612926565b6001600087815260200190815260200160002060008973ffffffffffffffffffffffffffffffffffffffff1673ffffffffffffffffffffffffffffffffffffffff16815260200190815260200160002081905550836001600087815260200190815260200160002060008873ffffffffffffffffffffffffffffffffffffffff1673ffffffffffffffffffffffffffffffffffffffff168152602001908152602001600020600082825461124791906128d0565b925050819055508573ffffffffffffffffffffffffffffffffffffffff168773ffffffffffffffffffffffffffffffffffffffff168373ffffffffffffffffffffffffffffffffffffffff167fc3d58168c5ae7397731d063d5bbf3d657854427343f4c083240f7aacaa2d0f6288886040516112c4929190612788565b60405180910390a46112da82888888888861194a565b50505050505050565b6112eb6114f6565b73ffffffffffffffffffffffffffffffffffffffff16611309610d3b565b73ffffffffffffffffffffffffffffffffffffffff161461135f576040517f08c379a0000000000000000000000000000000000000000000000000000000008152600401611356906126cd565b60405180910390fd5b600073ffffffffffffffffffffffffffffffffffffffff168173ffffffffffffffffffffffffffffffffffffffff1614156113cf576040517f08c379a00000000000000000000000000000000000000000000000000000000081526004016113c69061260d565b60405180910390fd5b8073ffffffffffffffffffffffffffffffffffffffff1660008054906101000a900473ffffffffffffffffffffffffffffffffffffffff1673ffffffffffffffffffffffffffffffffffffffff167f8be0079c531659141344cd1fd0a4f28419497f9722a3daafe3b4186f6b6457e060405160405180910390a3806000806101000a81548173ffffffffffffffffffffffffffffffffffffffff021916908373ffffffffffffffffffffffffffffffffffffffff16021790555050565b60007f01ffc9a7000000000000000000000000000000000000000000000000000000007bffffffffffffffffffffffffffffffffffffffffffffffffffffffff1916827bffffffffffffffffffffffffffffffffffffffffffffffffffffffff1916149050919050565b600033905090565b600073ffffffffffffffffffffffffffffffffffffffff168473ffffffffffffffffffffffffffffffffffffffff16141561156e576040517f08c379a00000000000000000000000000000000000000000000000000000000081526004016115659061274d565b60405180910390fd5b60006115786114f6565b90506115998160008761158a88611884565b61159388611884565b87611695565b826001600086815260200190815260200160002060008773ffffffffffffffffffffffffffffffffffffffff1673ffffffffffffffffffffffffffffffffffffffff16815260200190815260200160002060008282546115f991906128d0565b925050819055508473ffffffffffffffffffffffffffffffffffffffff16600073ffffffffffffffffffffffffffffffffffffffff168273ffffffffffffffffffffffffffffffffffffffff167fc3d58168c5ae7397731d063d5bbf3d657854427343f4c083240f7aacaa2d0f628787604051611677929190612788565b60405180910390a461168e8160008787878761194a565b5050505050565b505050505050565b6116bc8473ffffffffffffffffffffffffffffffffffffffff16611b68565b1561187c578373ffffffffffffffffffffffffffffffffffffffff1663bc197c8187878686866040518663ffffffff1660e01b815260040161170295949392919061243a565b602060405180830381600087803b15801561171c57600080fd5b505af192505050801561174d57506040513d601f19601f8201168201806040525081019061174a91906120b0565b60015b6117f357611759612b49565b806308c379a014156117b6575061176e612f8f565b8061177957506117b8565b806040517f08c379a00000000000000000000000000000000000000000000000000000000081526004016117ad919061258b565b60405180910390fd5b505b6040517f08c379a00000000000000000000000000000000000000000000000000000000081526004016117ea906125ad565b60405180910390fd5b63bc197c8160e01b7bffffffffffffffffffffffffffffffffffffffffffffffffffffffff1916817bffffffffffffffffffffffffffffffffffffffffffffffffffffffff19161461187a576040517f08c379a0000000000000000000000000000000000000000000000000000000008152600401611871906125cd565b60405180910390fd5b505b505050505050565b60606000600167ffffffffffffffff8111156118c9577f4e487b7100000000000000000000000000000000000000000000000000000000600052604160045260246000fd5b6040519080825280602002602001820160405280156118f75781602001602082028036833780820191505090505b5090508281600081518110611935577f4e487b7100000000000000000000000000000000000000000000000000000000600052603260045260246000fd5b60200260200101818152505080915050919050565b6119698473ffffffffffffffffffffffffffffffffffffffff16611b68565b15611b60578373ffffffffffffffffffffffffffffffffffffffff1663f23a6e6187878686866040518663ffffffff1660e01b81526004016119af9594939291906124a2565b602060405180830381600087803b1580156119c957600080fd5b505af19250505080156119fa57506040513d601f19601f820116820180604052508101906119f791906120b0565b60015b611aa057611a06612b49565b806308c379a01415611a635750611a1b612f8f565b80611a265750611a65565b806040517f08c379a0000000000000000000000000000000000000000000000000000000008152600401611a5a919061258b565b60405180910390fd5b505b6040517f08c379a0000000000000000000000000000000000000000000000000000000008152600401611a97906125ad565b60405180910390fd5b63f23a6e6160e01b7bffffffffffffffffffffffffffffffffffffffffffffffffffffffff1916817bffffffffffffffffffffffffffffffffffffffffffffffffffffffff191614611b27576040517f08c379a0000000000000000000000000000000000000000000000000000000008152600401611b1e906125cd565b60405180910390fd5b7f95e6c00594d1fcf468cd418fcbc41429e18f10f5a0441ef3b7440a57e3ee0cba81604051611b569190612570565b60405180910390a1505b505050505050565b600080823b905060008111915050919050565b6000611b8e611b89846127d6565b6127b1565b90508083825260208201905082856020860282011115611bad57600080fd5b60005b85811015611bdd5781611bc38882611c91565b845260208401935060208301925050600181019050611bb0565b5050509392505050565b6000611bfa611bf584612802565b6127b1565b90508083825260208201905082856020860282011115611c1957600080fd5b60005b85811015611c495781611c2f8882611d63565b845260208401935060208301925050600181019050611c1c565b5050509392505050565b6000611c66611c618461282e565b6127b1565b905082815260208101848484011115611c7e57600080fd5b611c898482856129ce565b509392505050565b600081359050611ca081613025565b92915050565b600082601f830112611cb757600080fd5b8135611cc7848260208601611b7b565b91505092915050565b600082601f830112611ce157600080fd5b8135611cf1848260208601611be7565b91505092915050565b600081359050611d098161303c565b92915050565b600081359050611d1e81613053565b92915050565b600081519050611d3381613053565b92915050565b600082601f830112611d4a57600080fd5b8135611d5a848260208601611c53565b91505092915050565b600081359050611d728161306a565b92915050565b600060208284031215611d8a57600080fd5b6000611d9884828501611c91565b91505092915050565b60008060408385031215611db457600080fd5b6000611dc285828601611c91565b9250506020611dd385828601611c91565b9150509250929050565b600080600080600060a08688031215611df557600080fd5b6000611e0388828901611c91565b9550506020611e1488828901611c91565b945050604086013567ffffffffffffffff811115611e3157600080fd5b611e3d88828901611cd0565b935050606086013567ffffffffffffffff811115611e5a57600080fd5b611e6688828901611cd0565b925050608086013567ffffffffffffffff811115611e8357600080fd5b611e8f88828901611d39565b9150509295509295909350565b600080600080600060a08688031215611eb457600080fd5b6000611ec288828901611c91565b9550506020611ed388828901611c91565b9450506040611ee488828901611d63565b9350506060611ef588828901611d63565b925050608086013567ffffffffffffffff811115611f1257600080fd5b611f1e88828901611d39565b9150509295509295909350565b60008060408385031215611f3e57600080fd5b6000611f4c85828601611c91565b9250506020611f5d85828601611cfa565b9150509250929050565b60008060408385031215611f7a57600080fd5b6000611f8885828601611c91565b9250506020611f9985828601611d63565b9150509250929050565b600080600060608486031215611fb857600080fd5b6000611fc686828701611c91565b9350506020611fd786828701611d63565b9250506040611fe886828701611d63565b9150509250925092565b6000806040838503121561200557600080fd5b600083013567ffffffffffffffff81111561201f57600080fd5b61202b85828601611ca6565b925050602083013567ffffffffffffffff81111561204857600080fd5b61205485828601611cd0565b9150509250929050565b60006020828403121561207057600080fd5b600061207e84828501611cfa565b91505092915050565b60006020828403121561209957600080fd5b60006120a784828501611d0f565b91505092915050565b6000602082840312156120c257600080fd5b60006120d084828501611d24565b91505092915050565b6000602082840312156120eb57600080fd5b60006120f984828501611d63565b91505092915050565b600061210e8383612401565b60208301905092915050565b6121238161295a565b82525050565b60006121348261286f565b61213e818561289d565b93506121498361285f565b8060005b8381101561217a5781516121618882612102565b975061216c83612890565b92505060018101905061214d565b5085935050505092915050565b6121908161296c565b82525050565b61219f81612978565b82525050565b60006121b08261287a565b6121ba81856128ae565b93506121ca8185602086016129dd565b6121d381612b6b565b840191505092915050565b60006121e982612885565b6121f381856128bf565b93506122038185602086016129dd565b61220c81612b6b565b840191505092915050565b60006122246034836128bf565b915061222f82612b89565b604082019050919050565b60006122476028836128bf565b915061225282612bd8565b604082019050919050565b600061226a602b836128bf565b915061227582612c27565b604082019050919050565b600061228d6026836128bf565b915061229882612c76565b604082019050919050565b60006122b06029836128bf565b91506122bb82612cc5565b604082019050919050565b60006122d36025836128bf565b91506122de82612d14565b604082019050919050565b60006122f66032836128bf565b915061230182612d63565b604082019050919050565b6000612319602a836128bf565b915061232482612db2565b604082019050919050565b600061233c6020836128bf565b915061234782612e01565b602082019050919050565b600061235f6020836128bf565b915061236a82612e2a565b602082019050919050565b60006123826029836128bf565b915061238d82612e53565b604082019050919050565b60006123a56029836128bf565b91506123b082612ea2565b604082019050919050565b60006123c86028836128bf565b91506123d382612ef1565b604082019050919050565b60006123eb6021836128bf565b91506123f682612f40565b604082019050919050565b61240a816129c4565b82525050565b612419816129c4565b82525050565b6000602082019050612434600083018461211a565b92915050565b600060a08201905061244f600083018861211a565b61245c602083018761211a565b818103604083015261246e8186612129565b905081810360608301526124828185612129565b9050818103608083015261249681846121a5565b90509695505050505050565b600060a0820190506124b7600083018861211a565b6124c4602083018761211a565b6124d16040830186612410565b6124de6060830185612410565b81810360808301526124f081846121a5565b90509695505050505050565b600060208201905081810360008301526125168184612129565b905092915050565b600060408201905081810360008301526125388185612129565b9050818103602083015261254c8184612129565b90509392505050565b600060208201905061256a6000830184612187565b92915050565b60006020820190506125856000830184612196565b92915050565b600060208201905081810360008301526125a581846121de565b905092915050565b600060208201905081810360008301526125c681612217565b9050919050565b600060208201905081810360008301526125e68161223a565b9050919050565b600060208201905081810360008301526126068161225d565b9050919050565b6000602082019050818103600083015261262681612280565b9050919050565b60006020820190508181036000830152612646816122a3565b9050919050565b60006020820190508181036000830152612666816122c6565b9050919050565b60006020820190508181036000830152612686816122e9565b9050919050565b600060208201905081810360008301526126a68161230c565b9050919050565b600060208201905081810360008301526126c68161232f565b9050919050565b600060208201905081810360008301526126e681612352565b9050919050565b6000602082019050818103600083015261270681612375565b9050919050565b6000602082019050818103600083015261272681612398565b9050919050565b60006020820190508181036000830152612746816123bb565b9050919050565b60006020820190508181036000830152612766816123de565b9050919050565b60006020820190506127826000830184612410565b92915050565b600060408201905061279d6000830185612410565b6127aa6020830184612410565b9392505050565b60006127bb6127cc565b90506127c78282612a42565b919050565b6000604051905090565b600067ffffffffffffffff8211156127f1576127f0612b1a565b5b602082029050602081019050919050565b600067ffffffffffffffff82111561281d5761281c612b1a565b5b602082029050602081019050919050565b600067ffffffffffffffff82111561284957612848612b1a565b5b61285282612b6b565b9050602081019050919050565b6000819050602082019050919050565b600081519050919050565b600081519050919050565b600081519050919050565b6000602082019050919050565b600082825260208201905092915050565b600082825260208201905092915050565b600082825260208201905092915050565b60006128db826129c4565b91506128e6836129c4565b9250827fffffffffffffffffffffffffffffffffffffffffffffffffffffffffffffffff0382111561291b5761291a612abc565b5b828201905092915050565b6000612931826129c4565b915061293c836129c4565b92508282101561294f5761294e612abc565b5b828203905092915050565b6000612965826129a4565b9050919050565b60008115159050919050565b60007fffffffff0000000000000000000000000000000000000000000000000000000082169050919050565b600073ffffffffffffffffffffffffffffffffffffffff82169050919050565b6000819050919050565b82818337600083830152505050565b60005b838110156129fb5780820151818401526020810190506129e0565b83811115612a0a576000848401525b50505050565b60006002820490506001821680612a2857607f821691505b60208210811415612a3c57612a3b612aeb565b5b50919050565b612a4b82612b6b565b810181811067ffffffffffffffff82111715612a6a57612a69612b1a565b5b80604052505050565b6000612a7e826129c4565b91507fffffffffffffffffffffffffffffffffffffffffffffffffffffffffffffffff821415612ab157612ab0612abc565b5b600182019050919050565b7f4e487b7100000000000000000000000000000000000000000000000000000000600052601160045260246000fd5b7f4e487b7100000000000000000000000000000000000000000000000000000000600052602260045260246000fd5b7f4e487b7100000000000000000000000000000000000000000000000000000000600052604160045260246000fd5b600060033d1115612b685760046000803e612b65600051612b7c565b90505b90565b6000601f19601f8301169050919050565b60008160e01c9050919050565b7f455243313135353a207472616e7366657220746f206e6f6e204552433131353560008201527f526563656976657220696d706c656d656e746572000000000000000000000000602082015250565b7f455243313135353a204552433131353552656365697665722072656a6563746560008201527f6420746f6b656e73000000000000000000000000000000000000000000000000602082015250565b7f455243313135353a2062616c616e636520717565727920666f7220746865207a60008201527f65726f2061646472657373000000000000000000000000000000000000000000602082015250565b7f4f776e61626c653a206e6577206f776e657220697320746865207a65726f206160008201527f6464726573730000000000000000000000000000000000000000000000000000602082015250565b7f455243313135353a2063616c6c6572206973206e6f74206f776e6572206e6f7260008201527f20617070726f7665640000000000000000000000000000000000000000000000602082015250565b7f455243313135353a207472616e7366657220746f20746865207a65726f20616460008201527f6472657373000000000000000000000000000000000000000000000000000000602082015250565b7f455243313135353a207472616e736665722063616c6c6572206973206e6f742060008201527f6f776e6572206e6f7220617070726f7665640000000000000000000000000000602082015250565b7f455243313135353a20696e73756666696369656e742062616c616e636520666f60008201527f72207472616e7366657200000000000000000000000000000000000000000000602082015250565b7f455243313135353a207472616e73666572206973206e6f7420656e61626c6564600082015250565b7f4f776e61626c653a2063616c6c6572206973206e6f7420746865206f776e6572600082015250565b7f455243313135353a2073657474696e6720617070726f76616c2073746174757360008201527f20666f722073656c660000000000000000000000000000000000000000000000602082015250565b7f455243313135353a206163636f756e747320616e6420696473206c656e67746860008201527f206d69736d617463680000000000000000000000000000000000000000000000602082015250565b7f455243313135353a2069647320616e6420616d6f756e7473206c656e6774682060008201527f6d69736d61746368000000000000000000000000000000000000000000000000602082015250565b7f455243313135353a206d696e7420746f20746865207a65726f2061646472657360008201527f7300000000000000000000000000000000000000000000000000000000000000602082015250565b600060443d1015612f9f57613022565b612fa76127cc565b60043d036004823e80513d602482011167ffffffffffffffff82111715612fcf575050613022565b808201805167ffffffffffffffff811115612fed5750505050613022565b80602083010160043d03850181111561300a575050505050613022565b61301982602001850186612a42565b82955050505050505b90565b61302e8161295a565b811461303957600080fd5b50565b6130458161296c565b811461305057600080fd5b50565b61305c81612978565b811461306757600080fd5b50565b613073816129c4565b811461307e57600080fd5b5056fea2646970667358221220663317a534e28d65cb816cad6cb7d13c1f7daa37bc8cb04c708d0906fd2886d564736f6c63430008040033",
  "immutableReferences": {},
  "source": "// contracts/TokenERC1155.sol\n// SPDX-License-Identifier: MIT\npragma solidity ^0.8.4;\n\nimport \"@openzeppelin/contracts/token/ERC1155/IERC1155.sol\";\nimport \"@openzeppelin/contracts/token/ERC1155/IERC1155Receiver.sol\";\nimport \"@openzeppelin/contracts/token/ERC1155/extensions/IERC1155MetadataURI.sol\";\nimport \"@openzeppelin/contracts/utils/Address.sol\";\nimport \"@openzeppelin/contracts/access/Ownable.sol\";\nimport \"@openzeppelin/contracts/utils/Strings.sol\";\nimport \"@openzeppelin/contracts/utils/introspection/ERC165.sol\";\n\ncontract TokenERC1155 is Ownable, ERC165, IERC1155, IERC1155MetadataURI {\n    using Address for address;\n\n    mapping(uint256 => mapping(address => uint256)) private _balances;\n\n    mapping(address => mapping(address => bool)) private _operatorApprovals;\n\n    string private _uri;\n\n    bool isTransferEnabled = false;\n\n    /**\n     * @dev emit event on ERC1155Received hook\n     */\n\n    event AfterTokenReceived(bytes4 hola);\n\n    constructor(string memory uri_) {\n        _setURI(uri_);\n    }\n\n    function setTransferStatus(bool _status) public onlyOwner {\n        isTransferEnabled = _status;\n    }\n\n    function mint(\n        address recipient,\n        uint256 tokenId,\n        uint256 amount\n    ) public onlyOwner {\n        _mint(recipient, tokenId, amount, \"\");\n    }\n\n    /**\n     * @dev See {IERC165-supportsInterface}.\n     */\n    function supportsInterface(bytes4 interfaceId)\n        public\n        view\n        virtual\n        override(ERC165, IERC165)\n        returns (bool)\n    {\n        return\n            interfaceId == type(IERC1155).interfaceId ||\n            interfaceId == type(IERC1155MetadataURI).interfaceId ||\n            super.supportsInterface(interfaceId);\n    }\n\n    /**\n     * @dev See {IERC1155MetadataURI-uri}.\n     *\n     * This implementation returns the same URI for *all* token types. It relies\n     * on the token type ID substitution mechanism\n     * https://eips.ethereum.org/EIPS/eip-1155#metadata[defined in the EIP].\n     *\n     * Clients calling this function must replace the `\\{id\\}` substring with the\n     * actual token type ID.\n     */\n\n    /** \n     @notice we can also implement token URI storage to store different uri per token in way mapping (uint256 => string) private _tokenURIs;\n     */\n\n    function uri(uint256) public view virtual override returns (string memory) {\n        return _uri;\n    }\n\n    /**\n     * @dev See {IERC1155-balanceOf}.\n     *\n     * Requirements:\n     *\n     * - `account` cannot be the zero address.\n     */\n    function balanceOf(address account, uint256 id)\n        public\n        view\n        virtual\n        override\n        returns (uint256)\n    {\n        require(\n            account != address(0),\n            \"ERC1155: balance query for the zero address\"\n        );\n        return _balances[id][account];\n    }\n\n    /**\n     * @dev See {IERC1155-balanceOfBatch}.\n     *\n     * Requirements:\n     *\n     * - `accounts` and `ids` must have the same length.\n     */\n    function balanceOfBatch(address[] memory accounts, uint256[] memory ids)\n        public\n        view\n        virtual\n        override\n        returns (uint256[] memory)\n    {\n        require(\n            accounts.length == ids.length,\n            \"ERC1155: accounts and ids length mismatch\"\n        );\n\n        uint256[] memory batchBalances = new uint256[](accounts.length);\n\n        for (uint256 i = 0; i < accounts.length; ++i) {\n            batchBalances[i] = balanceOf(accounts[i], ids[i]);\n        }\n\n        return batchBalances;\n    }\n\n    /**\n     * @dev See {IERC1155-setApprovalForAll}.\n     */\n    function setApprovalForAll(address operator, bool approved)\n        public\n        virtual\n        override\n    {\n        require(\n            _msgSender() != operator,\n            \"ERC1155: setting approval status for self\"\n        );\n\n        _operatorApprovals[_msgSender()][operator] = approved;\n        emit ApprovalForAll(_msgSender(), operator, approved);\n    }\n\n    /**\n     * @dev See {IERC1155-isApprovedForAll}.\n     */\n    function isApprovedForAll(address account, address operator)\n        public\n        view\n        virtual\n        override\n        returns (bool)\n    {\n        return _operatorApprovals[account][operator];\n    }\n\n    /**\n     * @dev See {IERC1155-safeTransferFrom}.\n     */\n    function safeTransferFrom(\n        address from,\n        address to,\n        uint256 id,\n        uint256 amount,\n        bytes memory data\n    ) public virtual override {\n        require(isTransferEnabled, \"ERC1155: transfer is not enabled\");\n        require(to != address(0), \"ERC1155: transfer to the zero address\");\n        require(\n            from == _msgSender() || isApprovedForAll(from, _msgSender()),\n            \"ERC1155: caller is not owner nor approved\"\n        );\n\n        address operator = _msgSender();\n\n        _beforeTokenTransfer(\n            operator,\n            from,\n            to,\n            _asSingletonArray(id),\n            _asSingletonArray(amount),\n            data\n        );\n\n        uint256 fromBalance = _balances[id][from];\n        require(\n            fromBalance >= amount,\n            \"ERC1155: insufficient balance for transfer\"\n        );\n        _balances[id][from] = fromBalance - amount;\n        _balances[id][to] += amount;\n\n        emit TransferSingle(operator, from, to, id, amount);\n\n        _doSafeTransferAcceptanceCheck(operator, from, to, id, amount, data);\n    }\n\n    /**\n     * @dev See {IERC1155-safeBatchTransferFrom}.\n     */\n    function safeBatchTransferFrom(\n        address from,\n        address to,\n        uint256[] memory ids,\n        uint256[] memory amounts,\n        bytes memory data\n    ) public virtual override {\n        require(isTransferEnabled, \"ERC1155: transfer is not enabled\");\n        require(\n            ids.length == amounts.length,\n            \"ERC1155: ids and amounts length mismatch\"\n        );\n        require(to != address(0), \"ERC1155: transfer to the zero address\");\n        require(\n            from == _msgSender() || isApprovedForAll(from, _msgSender()),\n            \"ERC1155: transfer caller is not owner nor approved\"\n        );\n\n        address operator = _msgSender();\n\n        _beforeTokenTransfer(operator, from, to, ids, amounts, data);\n\n        for (uint256 i = 0; i < ids.length; ++i) {\n            uint256 id = ids[i];\n            uint256 amount = amounts[i];\n\n            uint256 fromBalance = _balances[id][from];\n            require(\n                fromBalance >= amount,\n                \"ERC1155: insufficient balance for transfer\"\n            );\n            _balances[id][from] = fromBalance - amount;\n            _balances[id][to] += amount;\n        }\n\n        emit TransferBatch(operator, from, to, ids, amounts);\n\n        _doSafeBatchTransferAcceptanceCheck(\n            operator,\n            from,\n            to,\n            ids,\n            amounts,\n            data\n        );\n    }\n\n    /**\n     * @dev Sets a new URI for all token types, by relying on the token type ID\n     * substitution mechanism\n     * https://eips.ethereum.org/EIPS/eip-1155#metadata[defined in the EIP].\n     *\n     * By this mechanism, any occurrence of the `\\{id\\}` substring in either the\n     * URI or any of the amounts in the JSON file at said URI will be replaced by\n     * clients with the token type ID.\n     *\n     * For example, the `https://token-cdn-domain/\\{id\\}.json` URI would be\n     * interpreted by clients as\n     * `https://token-cdn-domain/000000000000000000000000000000000000000000000000000000000004cce0.json`\n     * for token type ID 0x4cce0.\n     *\n     * See {uri}.\n     *\n     * Because these URIs cannot be meaningfully represented by the {URI} event,\n     * this function emits no events.\n     */\n    function _setURI(string memory newuri) internal virtual {\n        _uri = newuri;\n    }\n\n    /**\n     * @dev Creates `amount` tokens of token type `id`, and assigns them to `account`.\n     *\n     * Emits a {TransferSingle} event.\n     *\n     * Requirements:\n     *\n     * - `account` cannot be the zero address.\n     * - If `account` refers to a smart contract, it must implement {IERC1155Receiver-onERC1155Received} and return the\n     * acceptance magic value.\n     */\n    function _mint(\n        address account,\n        uint256 id,\n        uint256 amount,\n        bytes memory data\n    ) internal virtual {\n        require(account != address(0), \"ERC1155: mint to the zero address\");\n\n        address operator = _msgSender();\n\n        _beforeTokenTransfer(\n            operator,\n            address(0),\n            account,\n            _asSingletonArray(id),\n            _asSingletonArray(amount),\n            data\n        );\n\n        _balances[id][account] += amount;\n        emit TransferSingle(operator, address(0), account, id, amount);\n\n        _doSafeTransferAcceptanceCheck(\n            operator,\n            address(0),\n            account,\n            id,\n            amount,\n            data\n        );\n    }\n\n    /**\n     * @dev xref:ROOT:erc1155.adoc#batch-operations[Batched] version of {_mint}.\n     *\n     * Requirements:\n     *\n     * - `ids` and `amounts` must have the same length.\n     * - If `to` refers to a smart contract, it must implement {IERC1155Receiver-onERC1155BatchReceived} and return the\n     * acceptance magic value.\n     */\n    function _mintBatch(\n        address to,\n        uint256[] memory ids,\n        uint256[] memory amounts,\n        bytes memory data\n    ) internal virtual {\n        require(to != address(0), \"ERC1155: mint to the zero address\");\n        require(\n            ids.length == amounts.length,\n            \"ERC1155: ids and amounts length mismatch\"\n        );\n\n        address operator = _msgSender();\n\n        _beforeTokenTransfer(operator, address(0), to, ids, amounts, data);\n\n        for (uint256 i = 0; i < ids.length; i++) {\n            _balances[ids[i]][to] += amounts[i];\n        }\n\n        emit TransferBatch(operator, address(0), to, ids, amounts);\n\n        _doSafeBatchTransferAcceptanceCheck(\n            operator,\n            address(0),\n            to,\n            ids,\n            amounts,\n            data\n        );\n    }\n\n    /**\n     * @dev Destroys `amount` tokens of token type `id` from `account`\n     *\n     * Requirements:\n     *\n     * - `account` cannot be the zero address.\n     * - `account` must have at least `amount` tokens of token type `id`.\n     */\n    function _burn(\n        address account,\n        uint256 id,\n        uint256 amount\n    ) internal virtual {\n        require(account != address(0), \"ERC1155: burn from the zero address\");\n\n        address operator = _msgSender();\n\n        _beforeTokenTransfer(\n            operator,\n            account,\n            address(0),\n            _asSingletonArray(id),\n            _asSingletonArray(amount),\n            \"\"\n        );\n\n        uint256 accountBalance = _balances[id][account];\n        require(\n            accountBalance >= amount,\n            \"ERC1155: burn amount exceeds balance\"\n        );\n        _balances[id][account] = accountBalance - amount;\n\n        emit TransferSingle(operator, account, address(0), id, amount);\n    }\n\n    /**\n     * @dev xref:ROOT:erc1155.adoc#batch-operations[Batched] version of {_burn}.\n     *\n     * Requirements:\n     *\n     * - `ids` and `amounts` must have the same length.\n     */\n    function _burnBatch(\n        address account,\n        uint256[] memory ids,\n        uint256[] memory amounts\n    ) internal virtual {\n        require(account != address(0), \"ERC1155: burn from the zero address\");\n        require(\n            ids.length == amounts.length,\n            \"ERC1155: ids and amounts length mismatch\"\n        );\n\n        address operator = _msgSender();\n\n        _beforeTokenTransfer(operator, account, address(0), ids, amounts, \"\");\n\n        for (uint256 i = 0; i < ids.length; i++) {\n            uint256 id = ids[i];\n            uint256 amount = amounts[i];\n\n            uint256 accountBalance = _balances[id][account];\n            require(\n                accountBalance >= amount,\n                \"ERC1155: burn amount exceeds balance\"\n            );\n            _balances[id][account] = accountBalance - amount;\n        }\n\n        emit TransferBatch(operator, account, address(0), ids, amounts);\n    }\n\n    /**\n     * @dev Hook that is called before any token transfer. This includes minting\n     * and burning, as well as batched variants.\n     *\n     * The same hook is called on both single and batched variants. For single\n     * transfers, the length of the `id` and `amount` arrays will be 1.\n     *\n     * Calling conditions (for each `id` and `amount` pair):\n     *\n     * - When `from` and `to` are both non-zero, `amount` of ``from``'s tokens\n     * of token type `id` will be  transferred to `to`.\n     * - When `from` is zero, `amount` tokens of token type `id` will be minted\n     * for `to`.\n     * - when `to` is zero, `amount` of ``from``'s tokens of token type `id`\n     * will be burned.\n     * - `from` and `to` are never both zero.\n     * - `ids` and `amounts` have the same, non-zero length.\n     *\n     * To learn more about hooks, head to xref:ROOT:extending-contracts.adoc#using-hooks[Using Hooks].\n     */\n    function _beforeTokenTransfer(\n        address operator,\n        address from,\n        address to,\n        uint256[] memory ids,\n        uint256[] memory amounts,\n        bytes memory data\n    ) internal virtual {}\n\n    function _doSafeTransferAcceptanceCheck(\n        address operator,\n        address from,\n        address to,\n        uint256 id,\n        uint256 amount,\n        bytes memory data\n    ) private {\n        if (to.isContract()) {\n            try\n                IERC1155Receiver(to).onERC1155Received(\n                    operator,\n                    from,\n                    id,\n                    amount,\n                    data\n                )\n            returns (bytes4 response) {\n                if (\n                    response != IERC1155Receiver(to).onERC1155Received.selector\n                ) {\n                    revert(\"ERC1155: ERC1155Receiver rejected tokens\");\n                } else {\n                    emit AfterTokenReceived(response);\n                }\n            } catch Error(string memory reason) {\n                revert(reason);\n            } catch {\n                revert(\"ERC1155: transfer to non ERC1155Receiver implementer\");\n            }\n        }\n    }\n\n    function _doSafeBatchTransferAcceptanceCheck(\n        address operator,\n        address from,\n        address to,\n        uint256[] memory ids,\n        uint256[] memory amounts,\n        bytes memory data\n    ) private {\n        if (to.isContract()) {\n            try\n                IERC1155Receiver(to).onERC1155BatchReceived(\n                    operator,\n                    from,\n                    ids,\n                    amounts,\n                    data\n                )\n            returns (bytes4 response) {\n                if (\n                    response !=\n                    IERC1155Receiver(to).onERC1155BatchReceived.selector\n                ) {\n                    revert(\"ERC1155: ERC1155Receiver rejected tokens\");\n                }\n            } catch Error(string memory reason) {\n                revert(reason);\n            } catch {\n                revert(\"ERC1155: transfer to non ERC1155Receiver implementer\");\n            }\n        }\n    }\n\n    function _asSingletonArray(uint256 element)\n        private\n        pure\n        returns (uint256[] memory)\n    {\n        uint256[] memory array = new uint256[](1);\n        array[0] = element;\n\n        return array;\n    }\n}\n",
  "sourcePath": "/Users/denis/_/prof-it/contracts/TokenERC1155.sol",
  "compiler": {
    "name": "solc",
    "version": "0.8.4+commit.c7e474f2.Emscripten.clang"
  },
  "schemaVersion": "3.4.0",
  "updatedAt": "2021-05-27T09:06:11.702Z",
  "networkType": "ethereum",
  "devdoc": {
    "events": {
      "AfterTokenReceived(bytes4)": {
        "details": "emit event on ERC1155Received hook"
      }
    },
    "kind": "dev",
    "methods": {
      "balanceOf(address,uint256)": {
        "details": "See {IERC1155-balanceOf}. Requirements: - `account` cannot be the zero address."
      },
      "balanceOfBatch(address[],uint256[])": {
        "details": "See {IERC1155-balanceOfBatch}. Requirements: - `accounts` and `ids` must have the same length."
      },
      "isApprovedForAll(address,address)": {
        "details": "See {IERC1155-isApprovedForAll}."
      },
      "owner()": {
        "details": "Returns the address of the current owner."
      },
      "renounceOwnership()": {
        "details": "Leaves the contract without owner. It will not be possible to call `onlyOwner` functions anymore. Can only be called by the current owner. NOTE: Renouncing ownership will leave the contract without an owner, thereby removing any functionality that is only available to the owner."
      },
      "safeBatchTransferFrom(address,address,uint256[],uint256[],bytes)": {
        "details": "See {IERC1155-safeBatchTransferFrom}."
      },
      "safeTransferFrom(address,address,uint256,uint256,bytes)": {
        "details": "See {IERC1155-safeTransferFrom}."
      },
      "setApprovalForAll(address,bool)": {
        "details": "See {IERC1155-setApprovalForAll}."
      },
      "supportsInterface(bytes4)": {
        "details": "See {IERC165-supportsInterface}."
      },
      "transferOwnership(address)": {
        "details": "Transfers ownership of the contract to a new account (`newOwner`). Can only be called by the current owner."
      }
    },
    "version": 1
  },
  "userdoc": {
    "kind": "user",
    "methods": {
      "uri(uint256)": {
        "notice": "we can also implement token URI storage to store different uri per token in way mapping (uint256 => string) private _tokenURIs;"
      }
    },
    "version": 1
  }
}